{
  "_format": "hh-sol-artifact-1",
  "contractName": "MyEpicNFT",
  "sourceName": "contracts/MyEpicNFT.sol",
  "abi": [
    {
      "inputs": [],
      "stateMutability": "nonpayable",
      "type": "constructor"
    },
    {
      "anonymous": false,
      "inputs": [
        {
          "indexed": true,
          "internalType": "address",
          "name": "owner",
          "type": "address"
        },
        {
          "indexed": true,
          "internalType": "address",
          "name": "approved",
          "type": "address"
        },
        {
          "indexed": true,
          "internalType": "uint256",
          "name": "tokenId",
          "type": "uint256"
        }
      ],
      "name": "Approval",
      "type": "event"
    },
    {
      "anonymous": false,
      "inputs": [
        {
          "indexed": true,
          "internalType": "address",
          "name": "owner",
          "type": "address"
        },
        {
          "indexed": true,
          "internalType": "address",
          "name": "operator",
          "type": "address"
        },
        {
          "indexed": false,
          "internalType": "bool",
          "name": "approved",
          "type": "bool"
        }
      ],
      "name": "ApprovalForAll",
      "type": "event"
    },
    {
      "anonymous": false,
      "inputs": [
        {
          "indexed": false,
          "internalType": "address",
          "name": "sender",
          "type": "address"
        },
        {
          "indexed": false,
          "internalType": "uint256",
          "name": "tokenId",
          "type": "uint256"
        }
      ],
      "name": "NewEpicNFTMinted",
      "type": "event"
    },
    {
      "anonymous": false,
      "inputs": [
        {
          "indexed": true,
          "internalType": "address",
          "name": "previousOwner",
          "type": "address"
        },
        {
          "indexed": true,
          "internalType": "address",
          "name": "newOwner",
          "type": "address"
        }
      ],
      "name": "OwnershipTransferred",
      "type": "event"
    },
    {
      "anonymous": false,
      "inputs": [
        {
          "indexed": true,
          "internalType": "address",
          "name": "from",
          "type": "address"
        },
        {
          "indexed": true,
          "internalType": "address",
          "name": "to",
          "type": "address"
        },
        {
          "indexed": true,
          "internalType": "uint256",
          "name": "tokenId",
          "type": "uint256"
        }
      ],
      "name": "Transfer",
      "type": "event"
    },
    {
      "inputs": [
        {
          "internalType": "address",
          "name": "to",
          "type": "address"
        },
        {
          "internalType": "uint256",
          "name": "tokenId",
          "type": "uint256"
        }
      ],
      "name": "approve",
      "outputs": [],
      "stateMutability": "nonpayable",
      "type": "function"
    },
    {
      "inputs": [
        {
          "internalType": "address",
          "name": "owner",
          "type": "address"
        }
      ],
      "name": "balanceOf",
      "outputs": [
        {
          "internalType": "uint256",
          "name": "",
          "type": "uint256"
        }
      ],
      "stateMutability": "view",
      "type": "function"
    },
    {
      "inputs": [],
      "name": "deleteDefaultRoyalty",
      "outputs": [],
      "stateMutability": "nonpayable",
      "type": "function"
    },
    {
      "inputs": [
        {
          "internalType": "uint256",
          "name": "tokenId",
          "type": "uint256"
        }
      ],
      "name": "getApproved",
      "outputs": [
        {
          "internalType": "address",
          "name": "",
          "type": "address"
        }
      ],
      "stateMutability": "view",
      "type": "function"
    },
    {
      "inputs": [],
      "name": "getMaxMints",
      "outputs": [
        {
          "internalType": "uint256",
          "name": "",
          "type": "uint256"
        }
      ],
      "stateMutability": "pure",
      "type": "function"
    },
    {
      "inputs": [],
      "name": "getTotalMints",
      "outputs": [
        {
          "internalType": "uint256",
          "name": "",
          "type": "uint256"
        }
      ],
      "stateMutability": "view",
      "type": "function"
    },
    {
      "inputs": [
        {
          "internalType": "address",
          "name": "owner",
          "type": "address"
        },
        {
          "internalType": "address",
          "name": "operator",
          "type": "address"
        }
      ],
      "name": "isApprovedForAll",
      "outputs": [
        {
          "internalType": "bool",
          "name": "",
          "type": "bool"
        }
      ],
      "stateMutability": "view",
      "type": "function"
    },
    {
      "inputs": [],
      "name": "makeAnEpicNFT",
      "outputs": [],
      "stateMutability": "payable",
      "type": "function"
    },
    {
      "inputs": [],
      "name": "name",
      "outputs": [
        {
          "internalType": "string",
          "name": "",
          "type": "string"
        }
      ],
      "stateMutability": "view",
      "type": "function"
    },
    {
      "inputs": [],
      "name": "owner",
      "outputs": [
        {
          "internalType": "address",
          "name": "",
          "type": "address"
        }
      ],
      "stateMutability": "view",
      "type": "function"
    },
    {
      "inputs": [
        {
          "internalType": "uint256",
          "name": "tokenId",
          "type": "uint256"
        }
      ],
      "name": "ownerOf",
      "outputs": [
        {
          "internalType": "address",
          "name": "",
          "type": "address"
        }
      ],
      "stateMutability": "view",
      "type": "function"
    },
    {
      "inputs": [
        {
          "internalType": "uint256",
          "name": "tokenId",
          "type": "uint256"
        }
      ],
      "name": "pickRandomFirstWord",
      "outputs": [
        {
          "internalType": "string",
          "name": "",
          "type": "string"
        }
      ],
      "stateMutability": "view",
      "type": "function"
    },
    {
      "inputs": [
        {
          "internalType": "uint256",
          "name": "tokenId",
          "type": "uint256"
        }
      ],
      "name": "pickRandomSecondWord",
      "outputs": [
        {
          "internalType": "string",
          "name": "",
          "type": "string"
        }
      ],
      "stateMutability": "view",
      "type": "function"
    },
    {
      "inputs": [
        {
          "internalType": "uint256",
          "name": "tokenId",
          "type": "uint256"
        }
      ],
      "name": "pickRandomThirdWord",
      "outputs": [
        {
          "internalType": "string",
          "name": "",
          "type": "string"
        }
      ],
      "stateMutability": "view",
      "type": "function"
    },
    {
      "inputs": [],
      "name": "renounceOwnership",
      "outputs": [],
      "stateMutability": "nonpayable",
      "type": "function"
    },
    {
      "inputs": [
        {
          "internalType": "uint256",
          "name": "tokenId",
          "type": "uint256"
        }
      ],
      "name": "resetTokenRoyalty",
      "outputs": [],
      "stateMutability": "nonpayable",
      "type": "function"
    },
    {
      "inputs": [
        {
          "internalType": "uint256",
          "name": "_tokenId",
          "type": "uint256"
        },
        {
          "internalType": "uint256",
          "name": "_salePrice",
          "type": "uint256"
        }
      ],
      "name": "royaltyInfo",
      "outputs": [
        {
          "internalType": "address",
          "name": "",
          "type": "address"
        },
        {
          "internalType": "uint256",
          "name": "",
          "type": "uint256"
        }
      ],
      "stateMutability": "view",
      "type": "function"
    },
    {
      "inputs": [
        {
          "internalType": "address",
          "name": "from",
          "type": "address"
        },
        {
          "internalType": "address",
          "name": "to",
          "type": "address"
        },
        {
          "internalType": "uint256",
          "name": "tokenId",
          "type": "uint256"
        }
      ],
      "name": "safeTransferFrom",
      "outputs": [],
      "stateMutability": "nonpayable",
      "type": "function"
    },
    {
      "inputs": [
        {
          "internalType": "address",
          "name": "from",
          "type": "address"
        },
        {
          "internalType": "address",
          "name": "to",
          "type": "address"
        },
        {
          "internalType": "uint256",
          "name": "tokenId",
          "type": "uint256"
        },
        {
          "internalType": "bytes",
          "name": "data",
          "type": "bytes"
        }
      ],
      "name": "safeTransferFrom",
      "outputs": [],
      "stateMutability": "nonpayable",
      "type": "function"
    },
    {
      "inputs": [
        {
          "internalType": "address",
          "name": "operator",
          "type": "address"
        },
        {
          "internalType": "bool",
          "name": "approved",
          "type": "bool"
        }
      ],
      "name": "setApprovalForAll",
      "outputs": [],
      "stateMutability": "nonpayable",
      "type": "function"
    },
    {
      "inputs": [
        {
          "internalType": "address",
          "name": "receiver",
          "type": "address"
        },
        {
          "internalType": "uint96",
          "name": "feeNumerator",
          "type": "uint96"
        }
      ],
      "name": "setDefaultRoyalty",
      "outputs": [],
      "stateMutability": "nonpayable",
      "type": "function"
    },
    {
      "inputs": [
        {
          "internalType": "uint256",
          "name": "tokenId",
          "type": "uint256"
        },
        {
          "internalType": "address",
          "name": "receiver",
          "type": "address"
        },
        {
          "internalType": "uint96",
          "name": "feeNumerator",
          "type": "uint96"
        }
      ],
      "name": "setTokenRoyalty",
      "outputs": [],
      "stateMutability": "nonpayable",
      "type": "function"
    },
    {
      "inputs": [
        {
          "internalType": "bytes4",
          "name": "interfaceId",
          "type": "bytes4"
        }
      ],
      "name": "supportsInterface",
      "outputs": [
        {
          "internalType": "bool",
          "name": "",
          "type": "bool"
        }
      ],
      "stateMutability": "view",
      "type": "function"
    },
    {
      "inputs": [],
      "name": "symbol",
      "outputs": [
        {
          "internalType": "string",
          "name": "",
          "type": "string"
        }
      ],
      "stateMutability": "view",
      "type": "function"
    },
    {
      "inputs": [
        {
          "internalType": "uint256",
          "name": "tokenId",
          "type": "uint256"
        }
      ],
      "name": "tokenURI",
      "outputs": [
        {
          "internalType": "string",
          "name": "",
          "type": "string"
        }
      ],
      "stateMutability": "view",
      "type": "function"
    },
    {
      "inputs": [
        {
          "internalType": "address",
          "name": "from",
          "type": "address"
        },
        {
          "internalType": "address",
          "name": "to",
          "type": "address"
        },
        {
          "internalType": "uint256",
          "name": "tokenId",
          "type": "uint256"
        }
      ],
      "name": "transferFrom",
      "outputs": [],
      "stateMutability": "nonpayable",
      "type": "function"
    },
    {
      "inputs": [
        {
          "internalType": "address",
          "name": "newOwner",
          "type": "address"
        }
      ],
      "name": "transferOwnership",
      "outputs": [],
      "stateMutability": "nonpayable",
      "type": "function"
    }
  ],
  "bytecode": "0x608060405260405180610160016040528061012f815260200162005aac61012f9139600b908162000031919062000cb8565b506040518060c001604052806040518060400160405280600481526020017f457069630000000000000000000000000000000000000000000000000000000081525081526020016040518060400160405280600981526020017f46616e746173746963000000000000000000000000000000000000000000000081525081526020016040518060400160405280600581526020017f437275646500000000000000000000000000000000000000000000000000000081525081526020016040518060400160405280600581526020017f4372617a7900000000000000000000000000000000000000000000000000000081525081526020016040518060400160405280600a81526020017f4879737465726963616c0000000000000000000000000000000000000000000081525081526020016040518060400160405280600581526020017f4772616e64000000000000000000000000000000000000000000000000000000815250815250600c906006620001af92919062000951565b506040518060c001604052806040518060400160405280600481526020017f4d6574610000000000000000000000000000000000000000000000000000000081525081526020016040518060400160405280600481526020017f4c6976650000000000000000000000000000000000000000000000000000000081525081526020016040518060400160405280600381526020017f506f70000000000000000000000000000000000000000000000000000000000081525081526020016040518060400160405280600481526020017f437574650000000000000000000000000000000000000000000000000000000081525081526020016040518060400160405280600581526020017f537765657400000000000000000000000000000000000000000000000000000081525081526020016040518060400160405280600381526020017f486f740000000000000000000000000000000000000000000000000000000000815250815250600d9060066200032d92919062000951565b506040518060c001604052806040518060400160405280600681526020017f4b697474656e000000000000000000000000000000000000000000000000000081525081526020016040518060400160405280600581526020017f507570707900000000000000000000000000000000000000000000000000000081525081526020016040518060400160405280600681526020017f4d6f6e6b6579000000000000000000000000000000000000000000000000000081525081526020016040518060400160405280600481526020017f426972640000000000000000000000000000000000000000000000000000000081525081526020016040518060400160405280600581526020017f50616e646100000000000000000000000000000000000000000000000000000081525081526020016040518060400160405280600881526020017f456c657068616e74000000000000000000000000000000000000000000000000815250815250600e906006620004ab92919062000951565b50348015620004b957600080fd5b506040518060400160405280600981526020017f5371756172654e465400000000000000000000000000000000000000000000008152506040518060400160405280600681526020017f5351554152450000000000000000000000000000000000000000000000000000815250816000908162000537919062000cb8565b50806001908162000549919062000cb8565b5050506200056c62000560620005e060201b60201c565b620005e860201b60201c565b620005b76040518060400160405280601881526020017f54686973206973206d79204e465420636f6e74726163742e0000000000000000815250620006ae60201b6200167e1760201c565b620005da620005cb6200075160201b60201c565b6103e86200077b60201b60201c565b62000f5c565b600033905090565b6000600760009054906101000a900473ffffffffffffffffffffffffffffffffffffffff16905081600760006101000a81548173ffffffffffffffffffffffffffffffffffffffff021916908373ffffffffffffffffffffffffffffffffffffffff1602179055508173ffffffffffffffffffffffffffffffffffffffff168173ffffffffffffffffffffffffffffffffffffffff167f8be0079c531659141344cd1fd0a4f28419497f9722a3daafe3b4186f6b6457e060405160405180910390a35050565b6200074e81604051602401620006c5919062000e2e565b6040516020818303038152906040527f41304fac000000000000000000000000000000000000000000000000000000007bffffffffffffffffffffffffffffffffffffffffffffffffffffffff19166020820180517bffffffffffffffffffffffffffffffffffffffffffffffffffffffff83818316178352505050506200091e60201b60201c565b50565b6000600760009054906101000a900473ffffffffffffffffffffffffffffffffffffffff16905090565b6200078b6200094760201b60201c565b6bffffffffffffffffffffffff16816bffffffffffffffffffffffff161115620007ec576040517f08c379a0000000000000000000000000000000000000000000000000000000008152600401620007e39062000ec8565b60405180910390fd5b600073ffffffffffffffffffffffffffffffffffffffff168273ffffffffffffffffffffffffffffffffffffffff16036200085e576040517f08c379a0000000000000000000000000000000000000000000000000000000008152600401620008559062000f3a565b60405180910390fd5b60405180604001604052808373ffffffffffffffffffffffffffffffffffffffff168152602001826bffffffffffffffffffffffff16815250600860008201518160000160006101000a81548173ffffffffffffffffffffffffffffffffffffffff021916908373ffffffffffffffffffffffffffffffffffffffff16021790555060208201518160000160146101000a8154816bffffffffffffffffffffffff02191690836bffffffffffffffffffffffff1602179055509050505050565b60008151905060006a636f6e736f6c652e6c6f679050602083016000808483855afa5050505050565b6000612710905090565b8280548282559060005260206000209081019282156200099e579160200282015b828111156200099d5782518290816200098c919062000cb8565b509160200191906001019062000972565b5b509050620009ad9190620009b1565b5090565b5b80821115620009d55760008181620009cb9190620009d9565b50600101620009b2565b5090565b508054620009e79062000aa7565b6000825580601f10620009fb575062000a1c565b601f01602090049060005260206000209081019062000a1b919062000a1f565b5b50565b5b8082111562000a3a57600081600090555060010162000a20565b5090565b600081519050919050565b7f4e487b7100000000000000000000000000000000000000000000000000000000600052604160045260246000fd5b7f4e487b7100000000000000000000000000000000000000000000000000000000600052602260045260246000fd5b6000600282049050600182168062000ac057607f821691505b60208210810362000ad65762000ad562000a78565b5b50919050565b60008190508160005260206000209050919050565b60006020601f8301049050919050565b600082821b905092915050565b60006008830262000b407fffffffffffffffffffffffffffffffffffffffffffffffffffffffffffffffff8262000b01565b62000b4c868362000b01565b95508019841693508086168417925050509392505050565b6000819050919050565b6000819050919050565b600062000b9962000b9362000b8d8462000b64565b62000b6e565b62000b64565b9050919050565b6000819050919050565b62000bb58362000b78565b62000bcd62000bc48262000ba0565b84845462000b0e565b825550505050565b600090565b62000be462000bd5565b62000bf181848462000baa565b505050565b5b8181101562000c195762000c0d60008262000bda565b60018101905062000bf7565b5050565b601f82111562000c685762000c328162000adc565b62000c3d8462000af1565b8101602085101562000c4d578190505b62000c6562000c5c8562000af1565b83018262000bf6565b50505b505050565b600082821c905092915050565b600062000c8d6000198460080262000c6d565b1980831691505092915050565b600062000ca8838362000c7a565b9150826002028217905092915050565b62000cc38262000a3e565b67ffffffffffffffff81111562000cdf5762000cde62000a49565b5b62000ceb825462000aa7565b62000cf882828562000c1d565b600060209050601f83116001811462000d30576000841562000d1b578287015190505b62000d27858262000c9a565b86555062000d97565b601f19841662000d408662000adc565b60005b8281101562000d6a5784890151825560018201915060208501945060208101905062000d43565b8683101562000d8a578489015162000d86601f89168262000c7a565b8355505b6001600288020188555050505b505050505050565b600082825260208201905092915050565b60005b8381101562000dd057808201518184015260208101905062000db3565b60008484015250505050565b6000601f19601f8301169050919050565b600062000dfa8262000a3e565b62000e06818562000d9f565b935062000e1881856020860162000db0565b62000e238162000ddc565b840191505092915050565b6000602082019050818103600083015262000e4a818462000ded565b905092915050565b7f455243323938313a20726f79616c7479206665652077696c6c2065786365656460008201527f2073616c65507269636500000000000000000000000000000000000000000000602082015250565b600062000eb0602a8362000d9f565b915062000ebd8262000e52565b604082019050919050565b6000602082019050818103600083015262000ee38162000ea1565b9050919050565b7f455243323938313a20696e76616c696420726563656976657200000000000000600082015250565b600062000f2260198362000d9f565b915062000f2f8262000eea565b602082019050919050565b6000602082019050818103600083015262000f558162000f13565b9050919050565b614b408062000f6c6000396000f3fe60806040526004361061019c5760003560e01c806370a08231116100ec578063b187301f1161008a578063c87b56dd11610064578063c87b56dd146105d7578063de9d132f14610614578063e985e9c51461061e578063f2fde38b1461065b5761019c565b8063b187301f14610534578063b88d4fde14610571578063c575757a1461059a5761019c565b80638da5cb5b116100c65780638da5cb5b1461049e57806395d89b41146104c9578063a22cb465146104f4578063aa1b103f1461051d5761019c565b806370a0823114610421578063715018a61461045e5780638a616bc0146104755761019c565b80632a55205a116101595780635944c753116101335780635944c753146103655780635bdf01c81461038e5780636352211e146103b95780636ec0dfe5146103f65761019c565b80632a55205a146102c15780632de38d68146102ff57806342842e0e1461033c5761019c565b806301ffc9a7146101a157806304634d8d146101de57806306fdde0314610207578063081812fc14610232578063095ea7b31461026f57806323b872dd14610298575b600080fd5b3480156101ad57600080fd5b506101c860048036038101906101c3919061300a565b610684565b6040516101d59190613052565b60405180910390f35b3480156101ea57600080fd5b506102056004803603810190610200919061310f565b610696565b005b34801561021357600080fd5b5061021c6106ac565b60405161022991906131df565b60405180910390f35b34801561023e57600080fd5b5061025960048036038101906102549190613237565b61073e565b6040516102669190613273565b60405180910390f35b34801561027b57600080fd5b506102966004803603810190610291919061328e565b610784565b005b3480156102a457600080fd5b506102bf60048036038101906102ba91906132ce565b61089b565b005b3480156102cd57600080fd5b506102e860048036038101906102e39190613321565b6108fb565b6040516102f6929190613370565b60405180910390f35b34801561030b57600080fd5b5061032660048036038101906103219190613237565b610ae5565b60405161033391906131df565b60405180910390f35b34801561034857600080fd5b50610363600480360381019061035e91906132ce565b610c5b565b005b34801561037157600080fd5b5061038c60048036038101906103879190613399565b610c7b565b005b34801561039a57600080fd5b506103a3610c93565b6040516103b091906133ec565b60405180910390f35b3480156103c557600080fd5b506103e060048036038101906103db9190613237565b610c9c565b6040516103ed9190613273565b60405180910390f35b34801561040257600080fd5b5061040b610d22565b60405161041891906133ec565b60405180910390f35b34801561042d57600080fd5b5061044860048036038101906104439190613407565b610d33565b60405161045591906133ec565b60405180910390f35b34801561046a57600080fd5b50610473610dea565b005b34801561048157600080fd5b5061049c60048036038101906104979190613237565b610dfe565b005b3480156104aa57600080fd5b506104b3610e12565b6040516104c09190613273565b60405180910390f35b3480156104d557600080fd5b506104de610e3c565b6040516104eb91906131df565b60405180910390f35b34801561050057600080fd5b5061051b60048036038101906105169190613460565b610ece565b005b34801561052957600080fd5b50610532610ee4565b005b34801561054057600080fd5b5061055b60048036038101906105569190613237565b610ef6565b60405161056891906131df565b60405180910390f35b34801561057d57600080fd5b50610598600480360381019061059391906135d5565b610fee565b005b3480156105a657600080fd5b506105c160048036038101906105bc9190613237565b611050565b6040516105ce91906131df565b60405180910390f35b3480156105e357600080fd5b506105fe60048036038101906105f99190613237565b611148565b60405161060b91906131df565b60405180910390f35b61061c61125a565b005b34801561062a57600080fd5b5061064560048036038101906106409190613658565b611567565b6040516106529190613052565b60405180910390f35b34801561066757600080fd5b50610682600480360381019061067d9190613407565b6115fb565b005b600061068f82611717565b9050919050565b61069e611791565b6106a8828261180f565b5050565b6060600080546106bb906136c7565b80601f01602080910402602001604051908101604052809291908181526020018280546106e7906136c7565b80156107345780601f1061070957610100808354040283529160200191610734565b820191906000526020600020905b81548152906001019060200180831161071757829003601f168201915b5050505050905090565b6000610749826119a4565b6004600083815260200190815260200160002060009054906101000a900473ffffffffffffffffffffffffffffffffffffffff169050919050565b600061078f82610c9c565b90508073ffffffffffffffffffffffffffffffffffffffff168373ffffffffffffffffffffffffffffffffffffffff16036107ff576040517f08c379a00000000000000000000000000000000000000000000000000000000081526004016107f69061376a565b60405180910390fd5b8073ffffffffffffffffffffffffffffffffffffffff1661081e6119ef565b73ffffffffffffffffffffffffffffffffffffffff16148061084d575061084c816108476119ef565b611567565b5b61088c576040517f08c379a0000000000000000000000000000000000000000000000000000000008152600401610883906137fc565b60405180910390fd5b61089683836119f7565b505050565b6108ac6108a66119ef565b82611ab0565b6108eb576040517f08c379a00000000000000000000000000000000000000000000000000000000081526004016108e29061388e565b60405180910390fd5b6108f6838383611b45565b505050565b6000806000600960008681526020019081526020016000206040518060400160405290816000820160009054906101000a900473ffffffffffffffffffffffffffffffffffffffff1673ffffffffffffffffffffffffffffffffffffffff1673ffffffffffffffffffffffffffffffffffffffff1681526020016000820160149054906101000a90046bffffffffffffffffffffffff166bffffffffffffffffffffffff166bffffffffffffffffffffffff16815250509050600073ffffffffffffffffffffffffffffffffffffffff16816000015173ffffffffffffffffffffffffffffffffffffffff1603610a905760086040518060400160405290816000820160009054906101000a900473ffffffffffffffffffffffffffffffffffffffff1673ffffffffffffffffffffffffffffffffffffffff1673ffffffffffffffffffffffffffffffffffffffff1681526020016000820160149054906101000a90046bffffffffffffffffffffffff166bffffffffffffffffffffffff166bffffffffffffffffffffffff168152505090505b6000610a9a611e3e565b6bffffffffffffffffffffffff1682602001516bffffffffffffffffffffffff1686610ac691906138dd565b610ad0919061394e565b90508160000151819350935050509250929050565b60606000610b19610af584611e48565b604051602001610b059190613a07565b604051602081830303815290604052611f16565b9050610b5a6040518060400160405280600d81526020017f72616e64202d20736565643a200000000000000000000000000000000000000081525082611f49565b600c8054905081610b6b9190613a29565b9050610bac6040518060400160405280601381526020017f72616e64202d20666972737420776f72643a200000000000000000000000000081525082611f49565b600c8181548110610bc057610bbf613a5a565b5b906000526020600020018054610bd5906136c7565b80601f0160208091040260200160405190810160405280929190818152602001828054610c01906136c7565b8015610c4e5780601f10610c2357610100808354040283529160200191610c4e565b820191906000526020600020905b815481529060010190602001808311610c3157829003601f168201915b5050505050915050919050565b610c7683838360405180602001604052806000815250610fee565b505050565b610c83611791565b610c8e838383611fe5565b505050565b60006014905090565b600080610ca88361218c565b9050600073ffffffffffffffffffffffffffffffffffffffff168173ffffffffffffffffffffffffffffffffffffffff1603610d19576040517f08c379a0000000000000000000000000000000000000000000000000000000008152600401610d1090613ad5565b60405180910390fd5b80915050919050565b6000610d2e600a6121c9565b905090565b60008073ffffffffffffffffffffffffffffffffffffffff168273ffffffffffffffffffffffffffffffffffffffff1603610da3576040517f08c379a0000000000000000000000000000000000000000000000000000000008152600401610d9a90613b67565b60405180910390fd5b600360008373ffffffffffffffffffffffffffffffffffffffff1673ffffffffffffffffffffffffffffffffffffffff168152602001908152602001600020549050919050565b610df2611791565b610dfc60006121d7565b565b610e06611791565b610e0f8161229d565b50565b6000600760009054906101000a900473ffffffffffffffffffffffffffffffffffffffff16905090565b606060018054610e4b906136c7565b80601f0160208091040260200160405190810160405280929190818152602001828054610e77906136c7565b8015610ec45780601f10610e9957610100808354040283529160200191610ec4565b820191906000526020600020905b815481529060010190602001808311610ea757829003601f168201915b5050505050905090565b610ee0610ed96119ef565b83836122fc565b5050565b610eec611791565b610ef4612468565b565b60606000610f2a610f0684611e48565b604051602001610f169190613bd3565b604051602081830303815290604052611f16565b9050600d8054905081610f3d9190613a29565b9050600d8181548110610f5357610f52613a5a565b5b906000526020600020018054610f68906136c7565b80601f0160208091040260200160405190810160405280929190818152602001828054610f94906136c7565b8015610fe15780601f10610fb657610100808354040283529160200191610fe1565b820191906000526020600020905b815481529060010190602001808311610fc457829003601f168201915b5050505050915050919050565b610fff610ff96119ef565b83611ab0565b61103e576040517f08c379a00000000000000000000000000000000000000000000000000000000081526004016110359061388e565b60405180910390fd5b61104a848484846124b5565b50505050565b6060600061108461106084611e48565b6040516020016110709190613c41565b604051602081830303815290604052611f16565b9050600e80549050816110979190613a29565b9050600e81815481106110ad576110ac613a5a565b5b9060005260206000200180546110c2906136c7565b80601f01602080910402602001604051908101604052809291908181526020018280546110ee906136c7565b801561113b5780601f106111105761010080835404028352916020019161113b565b820191906000526020600020905b81548152906001019060200180831161111e57829003601f168201915b5050505050915050919050565b6060611153826119a4565b6000600660008481526020019081526020016000208054611173906136c7565b80601f016020809104026020016040519081016040528092919081815260200182805461119f906136c7565b80156111ec5780601f106111c1576101008083540402835291602001916111ec565b820191906000526020600020905b8154815290600101906020018083116111cf57829003601f168201915b5050505050905060006111fd612511565b90506000815103611212578192505050611255565b60008251111561124757808260405160200161122f929190613c63565b60405160208183030381529060405292505050611255565b61125084612528565b925050505b919050565b60146001611268600a6121c9565b6112729190613c87565b106112b2576040517f08c379a00000000000000000000000000000000000000000000000000000000081526004016112a990613d07565b60405180910390fd5b6509184e72a0003410156112fb576040517f08c379a00000000000000000000000000000000000000000000000000000000081526004016112f290613d73565b60405180910390fd5b611305600a612590565b6000611311600a6121c9565b9050600061131e82610ae5565b9050600061132b83610ef6565b9050600061133884611050565b9050600083838360405160200161135193929190613d93565b60405160208183030381529060405290506000600b82604051602001611378929190613ea8565b60405160208183030381529060405290506113c76040518060400160405280601581526020017f0a2d2d2d2d2d205356472064617461202d2d2d2d2d000000000000000000000081525061167e565b6113d08161167e565b61140e6040518060400160405280601581526020017f2d2d2d2d2d2d2d2d2d2d2d2d2d2d2d2d2d2d2d2d0a000000000000000000000081525061167e565b60006114428361141d846125a6565b60405160200161142e92919061402d565b6040516020818303038152906040526125a6565b905060008160405160200161145791906140be565b60405160208183030381529060405290506114a66040518060400160405280601581526020017f0a2d2d2d2d2d20546f6b656e20555249202d2d2d2d000000000000000000000081525061167e565b6114af8161167e565b6114ed6040518060400160405280601581526020017f2d2d2d2d2d2d2d2d2d2d2d2d2d2d2d2d2d2d2d2d0a000000000000000000000081525061167e565b6114f7338961273d565b611501888261275b565b611524604051806060016040528060258152602001614aa66025913989336127c8565b7febb98688741ffa4c7589bf325de30cf7becb63de567842e1ccdb6cb949fdc82c3389604051611555929190613370565b60405180910390a15050505050505050565b6000600560008473ffffffffffffffffffffffffffffffffffffffff1673ffffffffffffffffffffffffffffffffffffffff16815260200190815260200160002060008373ffffffffffffffffffffffffffffffffffffffff1673ffffffffffffffffffffffffffffffffffffffff16815260200190815260200160002060009054906101000a900460ff16905092915050565b611603611791565b600073ffffffffffffffffffffffffffffffffffffffff168173ffffffffffffffffffffffffffffffffffffffff1603611672576040517f08c379a000000000000000000000000000000000000000000000000000000000815260040161166990614152565b60405180910390fd5b61167b816121d7565b50565b6117148160405160240161169291906131df565b6040516020818303038152906040527f41304fac000000000000000000000000000000000000000000000000000000007bffffffffffffffffffffffffffffffffffffffffffffffffffffffff19166020820180517bffffffffffffffffffffffffffffffffffffffffffffffffffffffff8381831617835250505050612867565b50565b60007f2a55205a000000000000000000000000000000000000000000000000000000007bffffffffffffffffffffffffffffffffffffffffffffffffffffffff1916827bffffffffffffffffffffffffffffffffffffffffffffffffffffffff1916148061178a575061178982612890565b5b9050919050565b6117996119ef565b73ffffffffffffffffffffffffffffffffffffffff166117b7610e12565b73ffffffffffffffffffffffffffffffffffffffff161461180d576040517f08c379a0000000000000000000000000000000000000000000000000000000008152600401611804906141be565b60405180910390fd5b565b611817611e3e565b6bffffffffffffffffffffffff16816bffffffffffffffffffffffff161115611875576040517f08c379a000000000000000000000000000000000000000000000000000000000815260040161186c90614250565b60405180910390fd5b600073ffffffffffffffffffffffffffffffffffffffff168273ffffffffffffffffffffffffffffffffffffffff16036118e4576040517f08c379a00000000000000000000000000000000000000000000000000000000081526004016118db906142bc565b60405180910390fd5b60405180604001604052808373ffffffffffffffffffffffffffffffffffffffff168152602001826bffffffffffffffffffffffff16815250600860008201518160000160006101000a81548173ffffffffffffffffffffffffffffffffffffffff021916908373ffffffffffffffffffffffffffffffffffffffff16021790555060208201518160000160146101000a8154816bffffffffffffffffffffffff02191690836bffffffffffffffffffffffff1602179055509050505050565b6119ad81612972565b6119ec576040517f08c379a00000000000000000000000000000000000000000000000000000000081526004016119e390613ad5565b60405180910390fd5b50565b600033905090565b816004600083815260200190815260200160002060006101000a81548173ffffffffffffffffffffffffffffffffffffffff021916908373ffffffffffffffffffffffffffffffffffffffff160217905550808273ffffffffffffffffffffffffffffffffffffffff16611a6a83610c9c565b73ffffffffffffffffffffffffffffffffffffffff167f8c5be1e5ebec7d5bd14f71427d1e84f3dd0314c0f7b2291e5b200ac8c7c3b92560405160405180910390a45050565b600080611abc83610c9c565b90508073ffffffffffffffffffffffffffffffffffffffff168473ffffffffffffffffffffffffffffffffffffffff161480611afe5750611afd8185611567565b5b80611b3c57508373ffffffffffffffffffffffffffffffffffffffff16611b248461073e565b73ffffffffffffffffffffffffffffffffffffffff16145b91505092915050565b8273ffffffffffffffffffffffffffffffffffffffff16611b6582610c9c565b73ffffffffffffffffffffffffffffffffffffffff1614611bbb576040517f08c379a0000000000000000000000000000000000000000000000000000000008152600401611bb29061434e565b60405180910390fd5b600073ffffffffffffffffffffffffffffffffffffffff168273ffffffffffffffffffffffffffffffffffffffff1603611c2a576040517f08c379a0000000000000000000000000000000000000000000000000000000008152600401611c21906143e0565b60405180910390fd5b611c3783838360016129b3565b8273ffffffffffffffffffffffffffffffffffffffff16611c5782610c9c565b73ffffffffffffffffffffffffffffffffffffffff1614611cad576040517f08c379a0000000000000000000000000000000000000000000000000000000008152600401611ca49061434e565b60405180910390fd5b6004600082815260200190815260200160002060006101000a81549073ffffffffffffffffffffffffffffffffffffffff02191690556001600360008573ffffffffffffffffffffffffffffffffffffffff1673ffffffffffffffffffffffffffffffffffffffff168152602001908152602001600020600082825403925050819055506001600360008473ffffffffffffffffffffffffffffffffffffffff1673ffffffffffffffffffffffffffffffffffffffff16815260200190815260200160002060008282540192505081905550816002600083815260200190815260200160002060006101000a81548173ffffffffffffffffffffffffffffffffffffffff021916908373ffffffffffffffffffffffffffffffffffffffff160217905550808273ffffffffffffffffffffffffffffffffffffffff168473ffffffffffffffffffffffffffffffffffffffff167fddf252ad1be2c89b69c2b068fc378daa952ba7f163c4a11628f55a4df523b3ef60405160405180910390a4611e3983838360016129b9565b505050565b6000612710905090565b606060006001611e57846129bf565b01905060008167ffffffffffffffff811115611e7657611e756134aa565b5b6040519080825280601f01601f191660200182016040528015611ea85781602001600182028036833780820191505090505b509050600082602001820190505b600115611f0b578080600190039150507f3031323334353637383961626364656600000000000000000000000000000000600a86061a8153600a8581611eff57611efe61391f565b5b04945060008503611eb6575b819350505050919050565b600081604051602001611f299190614400565b6040516020818303038152906040528051906020012060001c9050919050565b611fe18282604051602401611f5f929190614417565b6040516020818303038152906040527fb60e72cc000000000000000000000000000000000000000000000000000000007bffffffffffffffffffffffffffffffffffffffffffffffffffffffff19166020820180517bffffffffffffffffffffffffffffffffffffffffffffffffffffffff8381831617835250505050612867565b5050565b611fed611e3e565b6bffffffffffffffffffffffff16816bffffffffffffffffffffffff16111561204b576040517f08c379a000000000000000000000000000000000000000000000000000000000815260040161204290614250565b60405180910390fd5b600073ffffffffffffffffffffffffffffffffffffffff168273ffffffffffffffffffffffffffffffffffffffff16036120ba576040517f08c379a00000000000000000000000000000000000000000000000000000000081526004016120b190614493565b60405180910390fd5b60405180604001604052808373ffffffffffffffffffffffffffffffffffffffff168152602001826bffffffffffffffffffffffff168152506009600085815260200190815260200160002060008201518160000160006101000a81548173ffffffffffffffffffffffffffffffffffffffff021916908373ffffffffffffffffffffffffffffffffffffffff16021790555060208201518160000160146101000a8154816bffffffffffffffffffffffff02191690836bffffffffffffffffffffffff160217905550905050505050565b60006002600083815260200190815260200160002060009054906101000a900473ffffffffffffffffffffffffffffffffffffffff169050919050565b600081600001549050919050565b6000600760009054906101000a900473ffffffffffffffffffffffffffffffffffffffff16905081600760006101000a81548173ffffffffffffffffffffffffffffffffffffffff021916908373ffffffffffffffffffffffffffffffffffffffff1602179055508173ffffffffffffffffffffffffffffffffffffffff168173ffffffffffffffffffffffffffffffffffffffff167f8be0079c531659141344cd1fd0a4f28419497f9722a3daafe3b4186f6b6457e060405160405180910390a35050565b60096000828152602001908152602001600020600080820160006101000a81549073ffffffffffffffffffffffffffffffffffffffff02191690556000820160146101000a8154906bffffffffffffffffffffffff0219169055505050565b8173ffffffffffffffffffffffffffffffffffffffff168373ffffffffffffffffffffffffffffffffffffffff160361236a576040517f08c379a0000000000000000000000000000000000000000000000000000000008152600401612361906144ff565b60405180910390fd5b80600560008573ffffffffffffffffffffffffffffffffffffffff1673ffffffffffffffffffffffffffffffffffffffff16815260200190815260200160002060008473ffffffffffffffffffffffffffffffffffffffff1673ffffffffffffffffffffffffffffffffffffffff16815260200190815260200160002060006101000a81548160ff0219169083151502179055508173ffffffffffffffffffffffffffffffffffffffff168373ffffffffffffffffffffffffffffffffffffffff167f17307eab39ab6107e8899845ad3d59bd9653f200f220920489ca2b5937696c318360405161245b9190613052565b60405180910390a3505050565b6008600080820160006101000a81549073ffffffffffffffffffffffffffffffffffffffff02191690556000820160146101000a8154906bffffffffffffffffffffffff02191690555050565b6124c0848484611b45565b6124cc84848484612b12565b61250b576040517f08c379a000000000000000000000000000000000000000000000000000000000815260040161250290614591565b60405180910390fd5b50505050565b606060405180602001604052806000815250905090565b6060612533826119a4565b600061253d612511565b9050600081511161255d5760405180602001604052806000815250612588565b8061256784611e48565b604051602001612578929190613c63565b6040516020818303038152906040525b915050919050565b6001816000016000828254019250508190555050565b6060600082519050600081036125ce5760405180602001604052806000815250915050612738565b600060036002836125df9190613c87565b6125e9919061394e565b60046125f591906138dd565b905060006020826126069190613c87565b67ffffffffffffffff81111561261f5761261e6134aa565b5b6040519080825280601f01601f1916602001820160405280156126515781602001600182028036833780820191505090505b5090506000604051806060016040528060408152602001614acb604091399050600181016020830160005b868110156126f55760038101905062ffffff818a015116603f8160121c168401518060081b905060ff603f83600c1c1686015116810190508060081b905060ff603f8360061c1686015116810190508060081b905060ff603f831686015116810190508060e01b9050808452600484019350505061267c565b50600386066001811461270f576002811461271f5761272a565b613d3d60f01b600283035261272a565b603d60f81b60018303525b508484525050819450505050505b919050565b612757828260405180602001604052806000815250612c99565b5050565b61276482612972565b6127a3576040517f08c379a000000000000000000000000000000000000000000000000000000000815260040161279a90614623565b60405180910390fd5b806006600084815260200190815260200160002090816127c391906147da565b505050565b6128628383836040516024016127e0939291906148ac565b6040516020818303038152906040527f1c7ec448000000000000000000000000000000000000000000000000000000007bffffffffffffffffffffffffffffffffffffffffffffffffffffffff19166020820180517bffffffffffffffffffffffffffffffffffffffffffffffffffffffff8381831617835250505050612867565b505050565b60008151905060006a636f6e736f6c652e6c6f679050602083016000808483855afa5050505050565b60007f80ac58cd000000000000000000000000000000000000000000000000000000007bffffffffffffffffffffffffffffffffffffffffffffffffffffffff1916827bffffffffffffffffffffffffffffffffffffffffffffffffffffffff1916148061295b57507f5b5e139f000000000000000000000000000000000000000000000000000000007bffffffffffffffffffffffffffffffffffffffffffffffffffffffff1916827bffffffffffffffffffffffffffffffffffffffffffffffffffffffff1916145b8061296b575061296a82612cf4565b5b9050919050565b60008073ffffffffffffffffffffffffffffffffffffffff166129948361218c565b73ffffffffffffffffffffffffffffffffffffffff1614159050919050565b50505050565b50505050565b600080600090507a184f03e93ff9f4daa797ed6e38ed64bf6a1f0100000000000000008310612a1d577a184f03e93ff9f4daa797ed6e38ed64bf6a1f0100000000000000008381612a1357612a1261391f565b5b0492506040810190505b6d04ee2d6d415b85acef81000000008310612a5a576d04ee2d6d415b85acef81000000008381612a5057612a4f61391f565b5b0492506020810190505b662386f26fc100008310612a8957662386f26fc100008381612a7f57612a7e61391f565b5b0492506010810190505b6305f5e1008310612ab2576305f5e1008381612aa857612aa761391f565b5b0492506008810190505b6127108310612ad7576127108381612acd57612acc61391f565b5b0492506004810190505b60648310612afa5760648381612af057612aef61391f565b5b0492506002810190505b600a8310612b09576001810190505b80915050919050565b6000612b338473ffffffffffffffffffffffffffffffffffffffff16612d5e565b15612c8c578373ffffffffffffffffffffffffffffffffffffffff1663150b7a02612b5c6119ef565b8786866040518563ffffffff1660e01b8152600401612b7e949392919061493f565b6020604051808303816000875af1925050508015612bba57506040513d601f19601f82011682018060405250810190612bb791906149a0565b60015b612c3c573d8060008114612bea576040519150601f19603f3d011682016040523d82523d6000602084013e612bef565b606091505b506000815103612c34576040517f08c379a0000000000000000000000000000000000000000000000000000000008152600401612c2b90614591565b60405180910390fd5b805181602001fd5b63150b7a0260e01b7bffffffffffffffffffffffffffffffffffffffffffffffffffffffff1916817bffffffffffffffffffffffffffffffffffffffffffffffffffffffff191614915050612c91565b600190505b949350505050565b612ca38383612d81565b612cb06000848484612b12565b612cef576040517f08c379a0000000000000000000000000000000000000000000000000000000008152600401612ce690614591565b60405180910390fd5b505050565b60007f01ffc9a7000000000000000000000000000000000000000000000000000000007bffffffffffffffffffffffffffffffffffffffffffffffffffffffff1916827bffffffffffffffffffffffffffffffffffffffffffffffffffffffff1916149050919050565b6000808273ffffffffffffffffffffffffffffffffffffffff163b119050919050565b600073ffffffffffffffffffffffffffffffffffffffff168273ffffffffffffffffffffffffffffffffffffffff1603612df0576040517f08c379a0000000000000000000000000000000000000000000000000000000008152600401612de790614a19565b60405180910390fd5b612df981612972565b15612e39576040517f08c379a0000000000000000000000000000000000000000000000000000000008152600401612e3090614a85565b60405180910390fd5b612e476000838360016129b3565b612e5081612972565b15612e90576040517f08c379a0000000000000000000000000000000000000000000000000000000008152600401612e8790614a85565b60405180910390fd5b6001600360008473ffffffffffffffffffffffffffffffffffffffff1673ffffffffffffffffffffffffffffffffffffffff16815260200190815260200160002060008282540192505081905550816002600083815260200190815260200160002060006101000a81548173ffffffffffffffffffffffffffffffffffffffff021916908373ffffffffffffffffffffffffffffffffffffffff160217905550808273ffffffffffffffffffffffffffffffffffffffff16600073ffffffffffffffffffffffffffffffffffffffff167fddf252ad1be2c89b69c2b068fc378daa952ba7f163c4a11628f55a4df523b3ef60405160405180910390a4612f9a6000838360016129b9565b5050565b6000604051905090565b600080fd5b600080fd5b60007fffffffff0000000000000000000000000000000000000000000000000000000082169050919050565b612fe781612fb2565b8114612ff257600080fd5b50565b60008135905061300481612fde565b92915050565b6000602082840312156130205761301f612fa8565b5b600061302e84828501612ff5565b91505092915050565b60008115159050919050565b61304c81613037565b82525050565b60006020820190506130676000830184613043565b92915050565b600073ffffffffffffffffffffffffffffffffffffffff82169050919050565b60006130988261306d565b9050919050565b6130a88161308d565b81146130b357600080fd5b50565b6000813590506130c58161309f565b92915050565b60006bffffffffffffffffffffffff82169050919050565b6130ec816130cb565b81146130f757600080fd5b50565b600081359050613109816130e3565b92915050565b6000806040838503121561312657613125612fa8565b5b6000613134858286016130b6565b9250506020613145858286016130fa565b9150509250929050565b600081519050919050565b600082825260208201905092915050565b60005b8381101561318957808201518184015260208101905061316e565b60008484015250505050565b6000601f19601f8301169050919050565b60006131b18261314f565b6131bb818561315a565b93506131cb81856020860161316b565b6131d481613195565b840191505092915050565b600060208201905081810360008301526131f981846131a6565b905092915050565b6000819050919050565b61321481613201565b811461321f57600080fd5b50565b6000813590506132318161320b565b92915050565b60006020828403121561324d5761324c612fa8565b5b600061325b84828501613222565b91505092915050565b61326d8161308d565b82525050565b60006020820190506132886000830184613264565b92915050565b600080604083850312156132a5576132a4612fa8565b5b60006132b3858286016130b6565b92505060206132c485828601613222565b9150509250929050565b6000806000606084860312156132e7576132e6612fa8565b5b60006132f5868287016130b6565b9350506020613306868287016130b6565b925050604061331786828701613222565b9150509250925092565b6000806040838503121561333857613337612fa8565b5b600061334685828601613222565b925050602061335785828601613222565b9150509250929050565b61336a81613201565b82525050565b60006040820190506133856000830185613264565b6133926020830184613361565b9392505050565b6000806000606084860312156133b2576133b1612fa8565b5b60006133c086828701613222565b93505060206133d1868287016130b6565b92505060406133e2868287016130fa565b9150509250925092565b60006020820190506134016000830184613361565b92915050565b60006020828403121561341d5761341c612fa8565b5b600061342b848285016130b6565b91505092915050565b61343d81613037565b811461344857600080fd5b50565b60008135905061345a81613434565b92915050565b6000806040838503121561347757613476612fa8565b5b6000613485858286016130b6565b92505060206134968582860161344b565b9150509250929050565b600080fd5b600080fd5b7f4e487b7100000000000000000000000000000000000000000000000000000000600052604160045260246000fd5b6134e282613195565b810181811067ffffffffffffffff82111715613501576135006134aa565b5b80604052505050565b6000613514612f9e565b905061352082826134d9565b919050565b600067ffffffffffffffff8211156135405761353f6134aa565b5b61354982613195565b9050602081019050919050565b82818337600083830152505050565b600061357861357384613525565b61350a565b905082815260208101848484011115613594576135936134a5565b5b61359f848285613556565b509392505050565b600082601f8301126135bc576135bb6134a0565b5b81356135cc848260208601613565565b91505092915050565b600080600080608085870312156135ef576135ee612fa8565b5b60006135fd878288016130b6565b945050602061360e878288016130b6565b935050604061361f87828801613222565b925050606085013567ffffffffffffffff8111156136405761363f612fad565b5b61364c878288016135a7565b91505092959194509250565b6000806040838503121561366f5761366e612fa8565b5b600061367d858286016130b6565b925050602061368e858286016130b6565b9150509250929050565b7f4e487b7100000000000000000000000000000000000000000000000000000000600052602260045260246000fd5b600060028204905060018216806136df57607f821691505b6020821081036136f2576136f1613698565b5b50919050565b7f4552433732313a20617070726f76616c20746f2063757272656e74206f776e6560008201527f7200000000000000000000000000000000000000000000000000000000000000602082015250565b600061375460218361315a565b915061375f826136f8565b604082019050919050565b6000602082019050818103600083015261378381613747565b9050919050565b7f4552433732313a20617070726f76652063616c6c6572206973206e6f7420746f60008201527f6b656e206f776e6572206f7220617070726f76656420666f7220616c6c000000602082015250565b60006137e6603d8361315a565b91506137f18261378a565b604082019050919050565b60006020820190508181036000830152613815816137d9565b9050919050565b7f4552433732313a2063616c6c6572206973206e6f7420746f6b656e206f776e6560008201527f72206f7220617070726f76656400000000000000000000000000000000000000602082015250565b6000613878602d8361315a565b91506138838261381c565b604082019050919050565b600060208201905081810360008301526138a78161386b565b9050919050565b7f4e487b7100000000000000000000000000000000000000000000000000000000600052601160045260246000fd5b60006138e882613201565b91506138f383613201565b925082820261390181613201565b91508282048414831517613918576139176138ae565b5b5092915050565b7f4e487b7100000000000000000000000000000000000000000000000000000000600052601260045260246000fd5b600061395982613201565b915061396483613201565b9250826139745761397361391f565b5b828204905092915050565b600081905092915050565b7f46495253545f574f524400000000000000000000000000000000000000000000600082015250565b60006139c0600a8361397f565b91506139cb8261398a565b600a82019050919050565b60006139e18261314f565b6139eb818561397f565b93506139fb81856020860161316b565b80840191505092915050565b6000613a12826139b3565b9150613a1e82846139d6565b915081905092915050565b6000613a3482613201565b9150613a3f83613201565b925082613a4f57613a4e61391f565b5b828206905092915050565b7f4e487b7100000000000000000000000000000000000000000000000000000000600052603260045260246000fd5b7f4552433732313a20696e76616c696420746f6b656e2049440000000000000000600082015250565b6000613abf60188361315a565b9150613aca82613a89565b602082019050919050565b60006020820190508181036000830152613aee81613ab2565b9050919050565b7f4552433732313a2061646472657373207a65726f206973206e6f74206120766160008201527f6c6964206f776e65720000000000000000000000000000000000000000000000602082015250565b6000613b5160298361315a565b9150613b5c82613af5565b604082019050919050565b60006020820190508181036000830152613b8081613b44565b9050919050565b7f5345434f4e445f574f5244000000000000000000000000000000000000000000600082015250565b6000613bbd600b8361397f565b9150613bc882613b87565b600b82019050919050565b6000613bde82613bb0565b9150613bea82846139d6565b915081905092915050565b7f54484952445f574f524400000000000000000000000000000000000000000000600082015250565b6000613c2b600a8361397f565b9150613c3682613bf5565b600a82019050919050565b6000613c4c82613c1e565b9150613c5882846139d6565b915081905092915050565b6000613c6f82856139d6565b9150613c7b82846139d6565b91508190509392505050565b6000613c9282613201565b9150613c9d83613201565b9250828201905080821115613cb557613cb46138ae565b5b92915050565b7f63616e6e6f74206d696e74206f766572206d61782032306e6674732e00000000600082015250565b6000613cf1601c8361315a565b9150613cfc82613cbb565b602082019050919050565b60006020820190508181036000830152613d2081613ce4565b9050919050565b7f6e656564732066756e6420302e30303030312065746865722e00000000000000600082015250565b6000613d5d60198361315a565b9150613d6882613d27565b602082019050919050565b60006020820190508181036000830152613d8c81613d50565b9050919050565b6000613d9f82866139d6565b9150613dab82856139d6565b9150613db782846139d6565b9150819050949350505050565b60008190508160005260206000209050919050565b60008154613de6816136c7565b613df0818661397f565b94506001821660008114613e0b5760018114613e2057613e53565b60ff1983168652811515820286019350613e53565b613e2985613dc4565b60005b83811015613e4b57815481890152600182019150602081019050613e2c565b838801955050505b50505092915050565b7f3c2f746578743e3c2f7376673e00000000000000000000000000000000000000600082015250565b6000613e92600d8361397f565b9150613e9d82613e5c565b600d82019050919050565b6000613eb48285613dd9565b9150613ec082846139d6565b9150613ecb82613e85565b91508190509392505050565b7f7b226e616d65223a202200000000000000000000000000000000000000000000600082015250565b6000613f0d600a8361397f565b9150613f1882613ed7565b600a82019050919050565b7f222c20226465736372697074696f6e223a20224120686967686c79206163636c60008201527f61696d656420636f6c6c656374696f6e206f6620737175617265732e222c202260208201527f696d616765223a2022646174613a696d6167652f7376672b786d6c3b6261736560408201527f36342c0000000000000000000000000000000000000000000000000000000000606082015250565b6000613fcb60638361397f565b9150613fd682613f23565b606382019050919050565b7f227d000000000000000000000000000000000000000000000000000000000000600082015250565b600061401760028361397f565b915061402282613fe1565b600282019050919050565b600061403882613f00565b915061404482856139d6565b915061404f82613fbe565b915061405b82846139d6565b91506140668261400a565b91508190509392505050565b7f646174613a6170706c69636174696f6e2f6a736f6e3b6261736536342c000000600082015250565b60006140a8601d8361397f565b91506140b382614072565b601d82019050919050565b60006140c98261409b565b91506140d582846139d6565b915081905092915050565b7f4f776e61626c653a206e6577206f776e657220697320746865207a65726f206160008201527f6464726573730000000000000000000000000000000000000000000000000000602082015250565b600061413c60268361315a565b9150614147826140e0565b604082019050919050565b6000602082019050818103600083015261416b8161412f565b9050919050565b7f4f776e61626c653a2063616c6c6572206973206e6f7420746865206f776e6572600082015250565b60006141a860208361315a565b91506141b382614172565b602082019050919050565b600060208201905081810360008301526141d78161419b565b9050919050565b7f455243323938313a20726f79616c7479206665652077696c6c2065786365656460008201527f2073616c65507269636500000000000000000000000000000000000000000000602082015250565b600061423a602a8361315a565b9150614245826141de565b604082019050919050565b600060208201905081810360008301526142698161422d565b9050919050565b7f455243323938313a20696e76616c696420726563656976657200000000000000600082015250565b60006142a660198361315a565b91506142b182614270565b602082019050919050565b600060208201905081810360008301526142d581614299565b9050919050565b7f4552433732313a207472616e736665722066726f6d20696e636f72726563742060008201527f6f776e6572000000000000000000000000000000000000000000000000000000602082015250565b600061433860258361315a565b9150614343826142dc565b604082019050919050565b600060208201905081810360008301526143678161432b565b9050919050565b7f4552433732313a207472616e7366657220746f20746865207a65726f2061646460008201527f7265737300000000000000000000000000000000000000000000000000000000602082015250565b60006143ca60248361315a565b91506143d58261436e565b604082019050919050565b600060208201905081810360008301526143f9816143bd565b9050919050565b600061440c82846139d6565b915081905092915050565b6000604082019050818103600083015261443181856131a6565b90506144406020830184613361565b9392505050565b7f455243323938313a20496e76616c696420706172616d65746572730000000000600082015250565b600061447d601b8361315a565b915061448882614447565b602082019050919050565b600060208201905081810360008301526144ac81614470565b9050919050565b7f4552433732313a20617070726f766520746f2063616c6c657200000000000000600082015250565b60006144e960198361315a565b91506144f4826144b3565b602082019050919050565b60006020820190508181036000830152614518816144dc565b9050919050565b7f4552433732313a207472616e7366657220746f206e6f6e20455243373231526560008201527f63656976657220696d706c656d656e7465720000000000000000000000000000602082015250565b600061457b60328361315a565b91506145868261451f565b604082019050919050565b600060208201905081810360008301526145aa8161456e565b9050919050565b7f45524337323155524953746f726167653a2055524920736574206f66206e6f6e60008201527f6578697374656e7420746f6b656e000000000000000000000000000000000000602082015250565b600061460d602e8361315a565b9150614618826145b1565b604082019050919050565b6000602082019050818103600083015261463c81614600565b9050919050565b60006020601f8301049050919050565b600082821b905092915050565b6000600883026146907fffffffffffffffffffffffffffffffffffffffffffffffffffffffffffffffff82614653565b61469a8683614653565b95508019841693508086168417925050509392505050565b6000819050919050565b60006146d76146d26146cd84613201565b6146b2565b613201565b9050919050565b6000819050919050565b6146f1836146bc565b6147056146fd826146de565b848454614660565b825550505050565b600090565b61471a61470d565b6147258184846146e8565b505050565b5b818110156147495761473e600082614712565b60018101905061472b565b5050565b601f82111561478e5761475f81613dc4565b61476884614643565b81016020851015614777578190505b61478b61478385614643565b83018261472a565b50505b505050565b600082821c905092915050565b60006147b160001984600802614793565b1980831691505092915050565b60006147ca83836147a0565b9150826002028217905092915050565b6147e38261314f565b67ffffffffffffffff8111156147fc576147fb6134aa565b5b61480682546136c7565b61481182828561474d565b600060209050601f8311600181146148445760008415614832578287015190505b61483c85826147be565b8655506148a4565b601f19841661485286613dc4565b60005b8281101561487a57848901518255600182019150602085019450602081019050614855565b868310156148975784890151614893601f8916826147a0565b8355505b6001600288020188555050505b505050505050565b600060608201905081810360008301526148c681866131a6565b90506148d56020830185613361565b6148e26040830184613264565b949350505050565b600081519050919050565b600082825260208201905092915050565b6000614911826148ea565b61491b81856148f5565b935061492b81856020860161316b565b61493481613195565b840191505092915050565b60006080820190506149546000830187613264565b6149616020830186613264565b61496e6040830185613361565b81810360608301526149808184614906565b905095945050505050565b60008151905061499a81612fde565b92915050565b6000602082840312156149b6576149b5612fa8565b5b60006149c48482850161498b565b91505092915050565b7f4552433732313a206d696e7420746f20746865207a65726f2061646472657373600082015250565b6000614a0360208361315a565b9150614a0e826149cd565b602082019050919050565b60006020820190508181036000830152614a32816149f6565b9050919050565b7f4552433732313a20746f6b656e20616c7265616479206d696e74656400000000600082015250565b6000614a6f601c8361315a565b9150614a7a82614a39565b602082019050919050565b60006020820190508181036000830152614a9e81614a62565b905091905056fe416e204e465420772f20494420257320686173206265656e206d696e74656420746f2025734142434445464748494a4b4c4d4e4f505152535455565758595a6162636465666768696a6b6c6d6e6f707172737475767778797a303132333435363738392b2fa2646970667358221220babb21af006489fe824ef1fbbb7fc318de57656886dfbfa489a028385a95c41e64736f6c634300081200333c73766720786d6c6e733d27687474703a2f2f7777772e77332e6f72672f323030302f73766727207072657365727665417370656374526174696f3d27784d696e594d696e206d656574272076696577426f783d273020302033353020333530273e3c7374796c653e2e62617365207b2066696c6c3a2077686974653b20666f6e742d66616d696c793a2073657269663b20666f6e742d73697a653a20323470783b207d3c2f7374796c653e3c726563742077696474683d273130302527206865696768743d2731303025272066696c6c3d27626c61636b27202f3e3c7465787420783d273530252720793d273530252720636c6173733d27626173652720646f6d696e616e742d626173656c696e653d276d6964646c652720746578742d616e63686f723d276d6964646c65273e",
  "linkReferences": {},
  "deployedLinkReferences": {}
}