{
  "_format": "hh-sol-artifact-1",
  "contractName": "MyEpicNFT",
  "sourceName": "contracts/MyEpicNFT.sol",
  "abi": [
    {
      "inputs": [],
      "stateMutability": "nonpayable",
      "type": "constructor"
    },
    {
      "anonymous": false,
      "inputs": [
        {
          "indexed": true,
          "internalType": "address",
          "name": "owner",
          "type": "address"
        },
        {
          "indexed": true,
          "internalType": "address",
          "name": "approved",
          "type": "address"
        },
        {
          "indexed": true,
          "internalType": "uint256",
          "name": "tokenId",
          "type": "uint256"
        }
      ],
      "name": "Approval",
      "type": "event"
    },
    {
      "anonymous": false,
      "inputs": [
        {
          "indexed": true,
          "internalType": "address",
          "name": "owner",
          "type": "address"
        },
        {
          "indexed": true,
          "internalType": "address",
          "name": "operator",
          "type": "address"
        },
        {
          "indexed": false,
          "internalType": "bool",
          "name": "approved",
          "type": "bool"
        }
      ],
      "name": "ApprovalForAll",
      "type": "event"
    },
    {
      "anonymous": false,
      "inputs": [
        {
          "indexed": false,
          "internalType": "address",
          "name": "sender",
          "type": "address"
        },
        {
          "indexed": false,
          "internalType": "uint256",
          "name": "tokenId",
          "type": "uint256"
        }
      ],
      "name": "NewEpicNFTMinted",
      "type": "event"
    },
    {
      "anonymous": false,
      "inputs": [
        {
          "indexed": true,
          "internalType": "address",
          "name": "from",
          "type": "address"
        },
        {
          "indexed": true,
          "internalType": "address",
          "name": "to",
          "type": "address"
        },
        {
          "indexed": true,
          "internalType": "uint256",
          "name": "tokenId",
          "type": "uint256"
        }
      ],
      "name": "Transfer",
      "type": "event"
    },
    {
      "inputs": [
        {
          "internalType": "address",
          "name": "to",
          "type": "address"
        },
        {
          "internalType": "uint256",
          "name": "tokenId",
          "type": "uint256"
        }
      ],
      "name": "approve",
      "outputs": [],
      "stateMutability": "nonpayable",
      "type": "function"
    },
    {
      "inputs": [
        {
          "internalType": "address",
          "name": "owner",
          "type": "address"
        }
      ],
      "name": "balanceOf",
      "outputs": [
        {
          "internalType": "uint256",
          "name": "",
          "type": "uint256"
        }
      ],
      "stateMutability": "view",
      "type": "function"
    },
    {
      "inputs": [
        {
          "internalType": "uint256",
          "name": "tokenId",
          "type": "uint256"
        }
      ],
      "name": "getApproved",
      "outputs": [
        {
          "internalType": "address",
          "name": "",
          "type": "address"
        }
      ],
      "stateMutability": "view",
      "type": "function"
    },
    {
      "inputs": [],
      "name": "getMaxMints",
      "outputs": [
        {
          "internalType": "uint256",
          "name": "",
          "type": "uint256"
        }
      ],
      "stateMutability": "pure",
      "type": "function"
    },
    {
      "inputs": [],
      "name": "getTotalMints",
      "outputs": [
        {
          "internalType": "uint256",
          "name": "",
          "type": "uint256"
        }
      ],
      "stateMutability": "view",
      "type": "function"
    },
    {
      "inputs": [
        {
          "internalType": "address",
          "name": "owner",
          "type": "address"
        },
        {
          "internalType": "address",
          "name": "operator",
          "type": "address"
        }
      ],
      "name": "isApprovedForAll",
      "outputs": [
        {
          "internalType": "bool",
          "name": "",
          "type": "bool"
        }
      ],
      "stateMutability": "view",
      "type": "function"
    },
    {
      "inputs": [],
      "name": "makeAnEpicNFT",
      "outputs": [],
      "stateMutability": "nonpayable",
      "type": "function"
    },
    {
      "inputs": [],
      "name": "name",
      "outputs": [
        {
          "internalType": "string",
          "name": "",
          "type": "string"
        }
      ],
      "stateMutability": "view",
      "type": "function"
    },
    {
      "inputs": [
        {
          "internalType": "uint256",
          "name": "tokenId",
          "type": "uint256"
        }
      ],
      "name": "ownerOf",
      "outputs": [
        {
          "internalType": "address",
          "name": "",
          "type": "address"
        }
      ],
      "stateMutability": "view",
      "type": "function"
    },
    {
      "inputs": [
        {
          "internalType": "uint256",
          "name": "tokenId",
          "type": "uint256"
        }
      ],
      "name": "pickRandomFirstWord",
      "outputs": [
        {
          "internalType": "string",
          "name": "",
          "type": "string"
        }
      ],
      "stateMutability": "view",
      "type": "function"
    },
    {
      "inputs": [
        {
          "internalType": "uint256",
          "name": "tokenId",
          "type": "uint256"
        }
      ],
      "name": "pickRandomSecondWord",
      "outputs": [
        {
          "internalType": "string",
          "name": "",
          "type": "string"
        }
      ],
      "stateMutability": "view",
      "type": "function"
    },
    {
      "inputs": [
        {
          "internalType": "uint256",
          "name": "tokenId",
          "type": "uint256"
        }
      ],
      "name": "pickRandomThirdWord",
      "outputs": [
        {
          "internalType": "string",
          "name": "",
          "type": "string"
        }
      ],
      "stateMutability": "view",
      "type": "function"
    },
    {
      "inputs": [
        {
          "internalType": "address",
          "name": "from",
          "type": "address"
        },
        {
          "internalType": "address",
          "name": "to",
          "type": "address"
        },
        {
          "internalType": "uint256",
          "name": "tokenId",
          "type": "uint256"
        }
      ],
      "name": "safeTransferFrom",
      "outputs": [],
      "stateMutability": "nonpayable",
      "type": "function"
    },
    {
      "inputs": [
        {
          "internalType": "address",
          "name": "from",
          "type": "address"
        },
        {
          "internalType": "address",
          "name": "to",
          "type": "address"
        },
        {
          "internalType": "uint256",
          "name": "tokenId",
          "type": "uint256"
        },
        {
          "internalType": "bytes",
          "name": "data",
          "type": "bytes"
        }
      ],
      "name": "safeTransferFrom",
      "outputs": [],
      "stateMutability": "nonpayable",
      "type": "function"
    },
    {
      "inputs": [
        {
          "internalType": "address",
          "name": "operator",
          "type": "address"
        },
        {
          "internalType": "bool",
          "name": "approved",
          "type": "bool"
        }
      ],
      "name": "setApprovalForAll",
      "outputs": [],
      "stateMutability": "nonpayable",
      "type": "function"
    },
    {
      "inputs": [
        {
          "internalType": "bytes4",
          "name": "interfaceId",
          "type": "bytes4"
        }
      ],
      "name": "supportsInterface",
      "outputs": [
        {
          "internalType": "bool",
          "name": "",
          "type": "bool"
        }
      ],
      "stateMutability": "view",
      "type": "function"
    },
    {
      "inputs": [],
      "name": "symbol",
      "outputs": [
        {
          "internalType": "string",
          "name": "",
          "type": "string"
        }
      ],
      "stateMutability": "view",
      "type": "function"
    },
    {
      "inputs": [
        {
          "internalType": "uint256",
          "name": "tokenId",
          "type": "uint256"
        }
      ],
      "name": "tokenURI",
      "outputs": [
        {
          "internalType": "string",
          "name": "",
          "type": "string"
        }
      ],
      "stateMutability": "view",
      "type": "function"
    },
    {
      "inputs": [
        {
          "internalType": "address",
          "name": "from",
          "type": "address"
        },
        {
          "internalType": "address",
          "name": "to",
          "type": "address"
        },
        {
          "internalType": "uint256",
          "name": "tokenId",
          "type": "uint256"
        }
      ],
      "name": "transferFrom",
      "outputs": [],
      "stateMutability": "nonpayable",
      "type": "function"
    }
  ],
  "bytecode": "0x608060405260405180610160016040528061012f81526020016200471061012f913960089081620000319190620009d0565b506040518060c001604052806040518060400160405280600481526020017f457069630000000000000000000000000000000000000000000000000000000081525081526020016040518060400160405280600981526020017f46616e746173746963000000000000000000000000000000000000000000000081525081526020016040518060400160405280600581526020017f437275646500000000000000000000000000000000000000000000000000000081525081526020016040518060400160405280600581526020017f4372617a7900000000000000000000000000000000000000000000000000000081525081526020016040518060400160405280600a81526020017f4879737465726963616c0000000000000000000000000000000000000000000081525081526020016040518060400160405280600581526020017f4772616e640000000000000000000000000000000000000000000000000000008152508152506009906006620001af92919062000669565b506040518060c001604052806040518060400160405280600481526020017f4d6574610000000000000000000000000000000000000000000000000000000081525081526020016040518060400160405280600481526020017f4c6976650000000000000000000000000000000000000000000000000000000081525081526020016040518060400160405280600381526020017f506f70000000000000000000000000000000000000000000000000000000000081525081526020016040518060400160405280600481526020017f437574650000000000000000000000000000000000000000000000000000000081525081526020016040518060400160405280600581526020017f537765657400000000000000000000000000000000000000000000000000000081525081526020016040518060400160405280600381526020017f486f740000000000000000000000000000000000000000000000000000000000815250815250600a9060066200032d92919062000669565b506040518060c001604052806040518060400160405280600681526020017f4b697474656e000000000000000000000000000000000000000000000000000081525081526020016040518060400160405280600581526020017f507570707900000000000000000000000000000000000000000000000000000081525081526020016040518060400160405280600681526020017f4d6f6e6b6579000000000000000000000000000000000000000000000000000081525081526020016040518060400160405280600481526020017f426972640000000000000000000000000000000000000000000000000000000081525081526020016040518060400160405280600581526020017f50616e646100000000000000000000000000000000000000000000000000000081525081526020016040518060400160405280600881526020017f456c657068616e74000000000000000000000000000000000000000000000000815250815250600b906006620004ab92919062000669565b50348015620004b957600080fd5b506040518060400160405280600981526020017f5371756172654e465400000000000000000000000000000000000000000000008152506040518060400160405280600681526020017f53515541524500000000000000000000000000000000000000000000000000008152508160009081620005379190620009d0565b508060019081620005499190620009d0565b505050620005976040518060400160405280601881526020017f54686973206973206d79204e465420636f6e74726163742e00000000000000008152506200059d60201b620011511760201c565b62000b6a565b6200063d81604051602401620005b4919062000b46565b6040516020818303038152906040527f41304fac000000000000000000000000000000000000000000000000000000007bffffffffffffffffffffffffffffffffffffffffffffffffffffffff19166020820180517bffffffffffffffffffffffffffffffffffffffffffffffffffffffff83818316178352505050506200064060201b60201c565b50565b60008151905060006a636f6e736f6c652e6c6f679050602083016000808483855afa5050505050565b828054828255906000526020600020908101928215620006b6579160200282015b82811115620006b5578251829081620006a49190620009d0565b50916020019190600101906200068a565b5b509050620006c59190620006c9565b5090565b5b80821115620006ed5760008181620006e39190620006f1565b50600101620006ca565b5090565b508054620006ff90620007bf565b6000825580601f1062000713575062000734565b601f01602090049060005260206000209081019062000733919062000737565b5b50565b5b808211156200075257600081600090555060010162000738565b5090565b600081519050919050565b7f4e487b7100000000000000000000000000000000000000000000000000000000600052604160045260246000fd5b7f4e487b7100000000000000000000000000000000000000000000000000000000600052602260045260246000fd5b60006002820490506001821680620007d857607f821691505b602082108103620007ee57620007ed62000790565b5b50919050565b60008190508160005260206000209050919050565b60006020601f8301049050919050565b600082821b905092915050565b600060088302620008587fffffffffffffffffffffffffffffffffffffffffffffffffffffffffffffffff8262000819565b62000864868362000819565b95508019841693508086168417925050509392505050565b6000819050919050565b6000819050919050565b6000620008b1620008ab620008a5846200087c565b62000886565b6200087c565b9050919050565b6000819050919050565b620008cd8362000890565b620008e5620008dc82620008b8565b84845462000826565b825550505050565b600090565b620008fc620008ed565b62000909818484620008c2565b505050565b5b81811015620009315762000925600082620008f2565b6001810190506200090f565b5050565b601f82111562000980576200094a81620007f4565b620009558462000809565b8101602085101562000965578190505b6200097d620009748562000809565b8301826200090e565b50505b505050565b600082821c905092915050565b6000620009a56000198460080262000985565b1980831691505092915050565b6000620009c0838362000992565b9150826002028217905092915050565b620009db8262000756565b67ffffffffffffffff811115620009f757620009f662000761565b5b62000a038254620007bf565b62000a1082828562000935565b600060209050601f83116001811462000a48576000841562000a33578287015190505b62000a3f8582620009b2565b86555062000aaf565b601f19841662000a5886620007f4565b60005b8281101562000a825784890151825560018201915060208501945060208101905062000a5b565b8683101562000aa2578489015162000a9e601f89168262000992565b8355505b6001600288020188555050505b505050505050565b600082825260208201905092915050565b60005b8381101562000ae857808201518184015260208101905062000acb565b60008484015250505050565b6000601f19601f8301169050919050565b600062000b128262000756565b62000b1e818562000ab7565b935062000b3081856020860162000ac8565b62000b3b8162000af4565b840191505092915050565b6000602082019050818103600083015262000b62818462000b05565b905092915050565b613b968062000b7a6000396000f3fe608060405234801561001057600080fd5b50600436106101215760003560e01c80636ec0dfe5116100ad578063b88d4fde11610071578063b88d4fde1461032e578063c575757a1461034a578063c87b56dd1461037a578063de9d132f146103aa578063e985e9c5146103b457610121565b80636ec0dfe51461027657806370a082311461029457806395d89b41146102c4578063a22cb465146102e2578063b187301f146102fe57610121565b806323b872dd116100f457806323b872dd146101c05780632de38d68146101dc57806342842e0e1461020c5780635bdf01c8146102285780636352211e1461024657610121565b806301ffc9a71461012657806306fdde0314610156578063081812fc14610174578063095ea7b3146101a4575b600080fd5b610140600480360381019061013b919061244b565b6103e4565b60405161014d9190612493565b60405180910390f35b61015e6104c6565b60405161016b919061253e565b60405180910390f35b61018e60048036038101906101899190612596565b610558565b60405161019b9190612604565b60405180910390f35b6101be60048036038101906101b9919061264b565b61059e565b005b6101da60048036038101906101d5919061268b565b6106b5565b005b6101f660048036038101906101f19190612596565b610715565b604051610203919061253e565b60405180910390f35b6102266004803603810190610221919061268b565b61088b565b005b6102306108ab565b60405161023d91906126ed565b60405180910390f35b610260600480360381019061025b9190612596565b6108b4565b60405161026d9190612604565b60405180910390f35b61027e61093a565b60405161028b91906126ed565b60405180910390f35b6102ae60048036038101906102a99190612708565b61094b565b6040516102bb91906126ed565b60405180910390f35b6102cc610a02565b6040516102d9919061253e565b60405180910390f35b6102fc60048036038101906102f79190612761565b610a94565b005b61031860048036038101906103139190612596565b610aaa565b604051610325919061253e565b60405180910390f35b610348600480360381019061034391906128d6565b610ba2565b005b610364600480360381019061035f9190612596565b610c04565b604051610371919061253e565b60405180910390f35b610394600480360381019061038f9190612596565b610cfc565b6040516103a1919061253e565b60405180910390f35b6103b2610e0e565b005b6103ce60048036038101906103c99190612959565b6110bd565b6040516103db9190612493565b60405180910390f35b60007f80ac58cd000000000000000000000000000000000000000000000000000000007bffffffffffffffffffffffffffffffffffffffffffffffffffffffff1916827bffffffffffffffffffffffffffffffffffffffffffffffffffffffff191614806104af57507f5b5e139f000000000000000000000000000000000000000000000000000000007bffffffffffffffffffffffffffffffffffffffffffffffffffffffff1916827bffffffffffffffffffffffffffffffffffffffffffffffffffffffff1916145b806104bf57506104be826111ea565b5b9050919050565b6060600080546104d5906129c8565b80601f0160208091040260200160405190810160405280929190818152602001828054610501906129c8565b801561054e5780601f106105235761010080835404028352916020019161054e565b820191906000526020600020905b81548152906001019060200180831161053157829003601f168201915b5050505050905090565b600061056382611254565b6004600083815260200190815260200160002060009054906101000a900473ffffffffffffffffffffffffffffffffffffffff169050919050565b60006105a9826108b4565b90508073ffffffffffffffffffffffffffffffffffffffff168373ffffffffffffffffffffffffffffffffffffffff1603610619576040517f08c379a000000000000000000000000000000000000000000000000000000000815260040161061090612a6b565b60405180910390fd5b8073ffffffffffffffffffffffffffffffffffffffff1661063861129f565b73ffffffffffffffffffffffffffffffffffffffff16148061066757506106668161066161129f565b6110bd565b5b6106a6576040517f08c379a000000000000000000000000000000000000000000000000000000000815260040161069d90612afd565b60405180910390fd5b6106b083836112a7565b505050565b6106c66106c061129f565b82611360565b610705576040517f08c379a00000000000000000000000000000000000000000000000000000000081526004016106fc90612b8f565b60405180910390fd5b6107108383836113f5565b505050565b60606000610749610725846116ee565b6040516020016107359190612c37565b6040516020818303038152906040526117bc565b905061078a6040518060400160405280600d81526020017f72616e64202d20736565643a2000000000000000000000000000000000000000815250826117ef565b6009805490508161079b9190612c88565b90506107dc6040518060400160405280601381526020017f72616e64202d20666972737420776f72643a2000000000000000000000000000815250826117ef565b600981815481106107f0576107ef612cb9565b5b906000526020600020018054610805906129c8565b80601f0160208091040260200160405190810160405280929190818152602001828054610831906129c8565b801561087e5780601f106108535761010080835404028352916020019161087e565b820191906000526020600020905b81548152906001019060200180831161086157829003601f168201915b5050505050915050919050565b6108a683838360405180602001604052806000815250610ba2565b505050565b6000600a905090565b6000806108c08361188b565b9050600073ffffffffffffffffffffffffffffffffffffffff168173ffffffffffffffffffffffffffffffffffffffff1603610931576040517f08c379a000000000000000000000000000000000000000000000000000000000815260040161092890612d34565b60405180910390fd5b80915050919050565b600061094660076118c8565b905090565b60008073ffffffffffffffffffffffffffffffffffffffff168273ffffffffffffffffffffffffffffffffffffffff16036109bb576040517f08c379a00000000000000000000000000000000000000000000000000000000081526004016109b290612dc6565b60405180910390fd5b600360008373ffffffffffffffffffffffffffffffffffffffff1673ffffffffffffffffffffffffffffffffffffffff168152602001908152602001600020549050919050565b606060018054610a11906129c8565b80601f0160208091040260200160405190810160405280929190818152602001828054610a3d906129c8565b8015610a8a5780601f10610a5f57610100808354040283529160200191610a8a565b820191906000526020600020905b815481529060010190602001808311610a6d57829003601f168201915b5050505050905090565b610aa6610a9f61129f565b83836118d6565b5050565b60606000610ade610aba846116ee565b604051602001610aca9190612e32565b6040516020818303038152906040526117bc565b9050600a8054905081610af19190612c88565b9050600a8181548110610b0757610b06612cb9565b5b906000526020600020018054610b1c906129c8565b80601f0160208091040260200160405190810160405280929190818152602001828054610b48906129c8565b8015610b955780601f10610b6a57610100808354040283529160200191610b95565b820191906000526020600020905b815481529060010190602001808311610b7857829003601f168201915b5050505050915050919050565b610bb3610bad61129f565b83611360565b610bf2576040517f08c379a0000000000000000000000000000000000000000000000000000000008152600401610be990612b8f565b60405180910390fd5b610bfe84848484611a42565b50505050565b60606000610c38610c14846116ee565b604051602001610c249190612ea0565b6040516020818303038152906040526117bc565b9050600b8054905081610c4b9190612c88565b9050600b8181548110610c6157610c60612cb9565b5b906000526020600020018054610c76906129c8565b80601f0160208091040260200160405190810160405280929190818152602001828054610ca2906129c8565b8015610cef5780601f10610cc457610100808354040283529160200191610cef565b820191906000526020600020905b815481529060010190602001808311610cd257829003601f168201915b5050505050915050919050565b6060610d0782611254565b6000600660008481526020019081526020016000208054610d27906129c8565b80601f0160208091040260200160405190810160405280929190818152602001828054610d53906129c8565b8015610da05780601f10610d7557610100808354040283529160200191610da0565b820191906000526020600020905b815481529060010190602001808311610d8357829003601f168201915b505050505090506000610db1611a9e565b90506000815103610dc6578192505050610e09565b600082511115610dfb578082604051602001610de3929190612ec2565b60405160208183030381529060405292505050610e09565b610e0484611ab5565b925050505b919050565b610e186007611b1d565b6000610e2460076118c8565b9050600a8110610e69576040517f08c379a0000000000000000000000000000000000000000000000000000000008152600401610e6090612f32565b60405180910390fd5b6000610e7482610715565b90506000610e8183610aaa565b90506000610e8e84610c04565b90506000838383604051602001610ea793929190612f52565b60405160208183030381529060405290506000600882604051602001610ece929190613067565b6040516020818303038152906040529050610f1d6040518060400160405280601581526020017f0a2d2d2d2d2d205356472064617461202d2d2d2d2d0000000000000000000000815250611151565b610f2681611151565b610f646040518060400160405280601581526020017f2d2d2d2d2d2d2d2d2d2d2d2d2d2d2d2d2d2d2d2d0a0000000000000000000000815250611151565b6000610f9883610f7384611b33565b604051602001610f849291906131ec565b604051602081830303815290604052611b33565b9050600081604051602001610fad919061327d565b6040516020818303038152906040529050610ffc6040518060400160405280601581526020017f0a2d2d2d2d2d20546f6b656e20555249202d2d2d2d0000000000000000000000815250611151565b61100581611151565b6110436040518060400160405280601581526020017f2d2d2d2d2d2d2d2d2d2d2d2d2d2d2d2d2d2d2d2d0a0000000000000000000000815250611151565b61104d3389611cca565b6110578882611ce8565b61107a604051806060016040528060258152602001613afc602591398933611d55565b7febb98688741ffa4c7589bf325de30cf7becb63de567842e1ccdb6cb949fdc82c33896040516110ab92919061329f565b60405180910390a15050505050505050565b6000600560008473ffffffffffffffffffffffffffffffffffffffff1673ffffffffffffffffffffffffffffffffffffffff16815260200190815260200160002060008373ffffffffffffffffffffffffffffffffffffffff1673ffffffffffffffffffffffffffffffffffffffff16815260200190815260200160002060009054906101000a900460ff16905092915050565b6111e781604051602401611165919061253e565b6040516020818303038152906040527f41304fac000000000000000000000000000000000000000000000000000000007bffffffffffffffffffffffffffffffffffffffffffffffffffffffff19166020820180517bffffffffffffffffffffffffffffffffffffffffffffffffffffffff8381831617835250505050611df4565b50565b60007f01ffc9a7000000000000000000000000000000000000000000000000000000007bffffffffffffffffffffffffffffffffffffffffffffffffffffffff1916827bffffffffffffffffffffffffffffffffffffffffffffffffffffffff1916149050919050565b61125d81611e1d565b61129c576040517f08c379a000000000000000000000000000000000000000000000000000000000815260040161129390612d34565b60405180910390fd5b50565b600033905090565b816004600083815260200190815260200160002060006101000a81548173ffffffffffffffffffffffffffffffffffffffff021916908373ffffffffffffffffffffffffffffffffffffffff160217905550808273ffffffffffffffffffffffffffffffffffffffff1661131a836108b4565b73ffffffffffffffffffffffffffffffffffffffff167f8c5be1e5ebec7d5bd14f71427d1e84f3dd0314c0f7b2291e5b200ac8c7c3b92560405160405180910390a45050565b60008061136c836108b4565b90508073ffffffffffffffffffffffffffffffffffffffff168473ffffffffffffffffffffffffffffffffffffffff1614806113ae57506113ad81856110bd565b5b806113ec57508373ffffffffffffffffffffffffffffffffffffffff166113d484610558565b73ffffffffffffffffffffffffffffffffffffffff16145b91505092915050565b8273ffffffffffffffffffffffffffffffffffffffff16611415826108b4565b73ffffffffffffffffffffffffffffffffffffffff161461146b576040517f08c379a00000000000000000000000000000000000000000000000000000000081526004016114629061333a565b60405180910390fd5b600073ffffffffffffffffffffffffffffffffffffffff168273ffffffffffffffffffffffffffffffffffffffff16036114da576040517f08c379a00000000000000000000000000000000000000000000000000000000081526004016114d1906133cc565b60405180910390fd5b6114e78383836001611e5e565b8273ffffffffffffffffffffffffffffffffffffffff16611507826108b4565b73ffffffffffffffffffffffffffffffffffffffff161461155d576040517f08c379a00000000000000000000000000000000000000000000000000000000081526004016115549061333a565b60405180910390fd5b6004600082815260200190815260200160002060006101000a81549073ffffffffffffffffffffffffffffffffffffffff02191690556001600360008573ffffffffffffffffffffffffffffffffffffffff1673ffffffffffffffffffffffffffffffffffffffff168152602001908152602001600020600082825403925050819055506001600360008473ffffffffffffffffffffffffffffffffffffffff1673ffffffffffffffffffffffffffffffffffffffff16815260200190815260200160002060008282540192505081905550816002600083815260200190815260200160002060006101000a81548173ffffffffffffffffffffffffffffffffffffffff021916908373ffffffffffffffffffffffffffffffffffffffff160217905550808273ffffffffffffffffffffffffffffffffffffffff168473ffffffffffffffffffffffffffffffffffffffff167fddf252ad1be2c89b69c2b068fc378daa952ba7f163c4a11628f55a4df523b3ef60405160405180910390a46116e98383836001611e64565b505050565b6060600060016116fd84611e6a565b01905060008167ffffffffffffffff81111561171c5761171b6127ab565b5b6040519080825280601f01601f19166020018201604052801561174e5781602001600182028036833780820191505090505b509050600082602001820190505b6001156117b1578080600190039150507f3031323334353637383961626364656600000000000000000000000000000000600a86061a8153600a85816117a5576117a4612c59565b5b0494506000850361175c575b819350505050919050565b6000816040516020016117cf91906133ec565b6040516020818303038152906040528051906020012060001c9050919050565b6118878282604051602401611805929190613403565b6040516020818303038152906040527fb60e72cc000000000000000000000000000000000000000000000000000000007bffffffffffffffffffffffffffffffffffffffffffffffffffffffff19166020820180517bffffffffffffffffffffffffffffffffffffffffffffffffffffffff8381831617835250505050611df4565b5050565b60006002600083815260200190815260200160002060009054906101000a900473ffffffffffffffffffffffffffffffffffffffff169050919050565b600081600001549050919050565b8173ffffffffffffffffffffffffffffffffffffffff168373ffffffffffffffffffffffffffffffffffffffff1603611944576040517f08c379a000000000000000000000000000000000000000000000000000000000815260040161193b9061347f565b60405180910390fd5b80600560008573ffffffffffffffffffffffffffffffffffffffff1673ffffffffffffffffffffffffffffffffffffffff16815260200190815260200160002060008473ffffffffffffffffffffffffffffffffffffffff1673ffffffffffffffffffffffffffffffffffffffff16815260200190815260200160002060006101000a81548160ff0219169083151502179055508173ffffffffffffffffffffffffffffffffffffffff168373ffffffffffffffffffffffffffffffffffffffff167f17307eab39ab6107e8899845ad3d59bd9653f200f220920489ca2b5937696c3183604051611a359190612493565b60405180910390a3505050565b611a4d8484846113f5565b611a5984848484611fbd565b611a98576040517f08c379a0000000000000000000000000000000000000000000000000000000008152600401611a8f90613511565b60405180910390fd5b50505050565b606060405180602001604052806000815250905090565b6060611ac082611254565b6000611aca611a9e565b90506000815111611aea5760405180602001604052806000815250611b15565b80611af4846116ee565b604051602001611b05929190612ec2565b6040516020818303038152906040525b915050919050565b6001816000016000828254019250508190555050565b606060008251905060008103611b5b5760405180602001604052806000815250915050611cc5565b60006003600283611b6c9190613560565b611b769190613594565b6004611b8291906135c5565b90506000602082611b939190613560565b67ffffffffffffffff811115611bac57611bab6127ab565b5b6040519080825280601f01601f191660200182016040528015611bde5781602001600182028036833780820191505090505b5090506000604051806060016040528060408152602001613b21604091399050600181016020830160005b86811015611c825760038101905062ffffff818a015116603f8160121c168401518060081b905060ff603f83600c1c1686015116810190508060081b905060ff603f8360061c1686015116810190508060081b905060ff603f831686015116810190508060e01b90508084526004840193505050611c09565b506003860660018114611c9c5760028114611cac57611cb7565b613d3d60f01b6002830352611cb7565b603d60f81b60018303525b508484525050819450505050505b919050565b611ce4828260405180602001604052806000815250612144565b5050565b611cf182611e1d565b611d30576040517f08c379a0000000000000000000000000000000000000000000000000000000008152600401611d2790613679565b60405180910390fd5b80600660008481526020019081526020016000209081611d509190613830565b505050565b611def838383604051602401611d6d93929190613902565b6040516020818303038152906040527f1c7ec448000000000000000000000000000000000000000000000000000000007bffffffffffffffffffffffffffffffffffffffffffffffffffffffff19166020820180517bffffffffffffffffffffffffffffffffffffffffffffffffffffffff8381831617835250505050611df4565b505050565b60008151905060006a636f6e736f6c652e6c6f679050602083016000808483855afa5050505050565b60008073ffffffffffffffffffffffffffffffffffffffff16611e3f8361188b565b73ffffffffffffffffffffffffffffffffffffffff1614159050919050565b50505050565b50505050565b600080600090507a184f03e93ff9f4daa797ed6e38ed64bf6a1f0100000000000000008310611ec8577a184f03e93ff9f4daa797ed6e38ed64bf6a1f0100000000000000008381611ebe57611ebd612c59565b5b0492506040810190505b6d04ee2d6d415b85acef81000000008310611f05576d04ee2d6d415b85acef81000000008381611efb57611efa612c59565b5b0492506020810190505b662386f26fc100008310611f3457662386f26fc100008381611f2a57611f29612c59565b5b0492506010810190505b6305f5e1008310611f5d576305f5e1008381611f5357611f52612c59565b5b0492506008810190505b6127108310611f82576127108381611f7857611f77612c59565b5b0492506004810190505b60648310611fa55760648381611f9b57611f9a612c59565b5b0492506002810190505b600a8310611fb4576001810190505b80915050919050565b6000611fde8473ffffffffffffffffffffffffffffffffffffffff1661219f565b15612137578373ffffffffffffffffffffffffffffffffffffffff1663150b7a0261200761129f565b8786866040518563ffffffff1660e01b81526004016120299493929190613995565b6020604051808303816000875af192505050801561206557506040513d601f19601f8201168201806040525081019061206291906139f6565b60015b6120e7573d8060008114612095576040519150601f19603f3d011682016040523d82523d6000602084013e61209a565b606091505b5060008151036120df576040517f08c379a00000000000000000000000000000000000000000000000000000000081526004016120d690613511565b60405180910390fd5b805181602001fd5b63150b7a0260e01b7bffffffffffffffffffffffffffffffffffffffffffffffffffffffff1916817bffffffffffffffffffffffffffffffffffffffffffffffffffffffff19161491505061213c565b600190505b949350505050565b61214e83836121c2565b61215b6000848484611fbd565b61219a576040517f08c379a000000000000000000000000000000000000000000000000000000000815260040161219190613511565b60405180910390fd5b505050565b6000808273ffffffffffffffffffffffffffffffffffffffff163b119050919050565b600073ffffffffffffffffffffffffffffffffffffffff168273ffffffffffffffffffffffffffffffffffffffff1603612231576040517f08c379a000000000000000000000000000000000000000000000000000000000815260040161222890613a6f565b60405180910390fd5b61223a81611e1d565b1561227a576040517f08c379a000000000000000000000000000000000000000000000000000000000815260040161227190613adb565b60405180910390fd5b612288600083836001611e5e565b61229181611e1d565b156122d1576040517f08c379a00000000000000000000000000000000000000000000000000000000081526004016122c890613adb565b60405180910390fd5b6001600360008473ffffffffffffffffffffffffffffffffffffffff1673ffffffffffffffffffffffffffffffffffffffff16815260200190815260200160002060008282540192505081905550816002600083815260200190815260200160002060006101000a81548173ffffffffffffffffffffffffffffffffffffffff021916908373ffffffffffffffffffffffffffffffffffffffff160217905550808273ffffffffffffffffffffffffffffffffffffffff16600073ffffffffffffffffffffffffffffffffffffffff167fddf252ad1be2c89b69c2b068fc378daa952ba7f163c4a11628f55a4df523b3ef60405160405180910390a46123db600083836001611e64565b5050565b6000604051905090565b600080fd5b600080fd5b60007fffffffff0000000000000000000000000000000000000000000000000000000082169050919050565b612428816123f3565b811461243357600080fd5b50565b6000813590506124458161241f565b92915050565b600060208284031215612461576124606123e9565b5b600061246f84828501612436565b91505092915050565b60008115159050919050565b61248d81612478565b82525050565b60006020820190506124a86000830184612484565b92915050565b600081519050919050565b600082825260208201905092915050565b60005b838110156124e85780820151818401526020810190506124cd565b60008484015250505050565b6000601f19601f8301169050919050565b6000612510826124ae565b61251a81856124b9565b935061252a8185602086016124ca565b612533816124f4565b840191505092915050565b600060208201905081810360008301526125588184612505565b905092915050565b6000819050919050565b61257381612560565b811461257e57600080fd5b50565b6000813590506125908161256a565b92915050565b6000602082840312156125ac576125ab6123e9565b5b60006125ba84828501612581565b91505092915050565b600073ffffffffffffffffffffffffffffffffffffffff82169050919050565b60006125ee826125c3565b9050919050565b6125fe816125e3565b82525050565b600060208201905061261960008301846125f5565b92915050565b612628816125e3565b811461263357600080fd5b50565b6000813590506126458161261f565b92915050565b60008060408385031215612662576126616123e9565b5b600061267085828601612636565b925050602061268185828601612581565b9150509250929050565b6000806000606084860312156126a4576126a36123e9565b5b60006126b286828701612636565b93505060206126c386828701612636565b92505060406126d486828701612581565b9150509250925092565b6126e781612560565b82525050565b600060208201905061270260008301846126de565b92915050565b60006020828403121561271e5761271d6123e9565b5b600061272c84828501612636565b91505092915050565b61273e81612478565b811461274957600080fd5b50565b60008135905061275b81612735565b92915050565b60008060408385031215612778576127776123e9565b5b600061278685828601612636565b92505060206127978582860161274c565b9150509250929050565b600080fd5b600080fd5b7f4e487b7100000000000000000000000000000000000000000000000000000000600052604160045260246000fd5b6127e3826124f4565b810181811067ffffffffffffffff82111715612802576128016127ab565b5b80604052505050565b60006128156123df565b905061282182826127da565b919050565b600067ffffffffffffffff821115612841576128406127ab565b5b61284a826124f4565b9050602081019050919050565b82818337600083830152505050565b600061287961287484612826565b61280b565b905082815260208101848484011115612895576128946127a6565b5b6128a0848285612857565b509392505050565b600082601f8301126128bd576128bc6127a1565b5b81356128cd848260208601612866565b91505092915050565b600080600080608085870312156128f0576128ef6123e9565b5b60006128fe87828801612636565b945050602061290f87828801612636565b935050604061292087828801612581565b925050606085013567ffffffffffffffff811115612941576129406123ee565b5b61294d878288016128a8565b91505092959194509250565b600080604083850312156129705761296f6123e9565b5b600061297e85828601612636565b925050602061298f85828601612636565b9150509250929050565b7f4e487b7100000000000000000000000000000000000000000000000000000000600052602260045260246000fd5b600060028204905060018216806129e057607f821691505b6020821081036129f3576129f2612999565b5b50919050565b7f4552433732313a20617070726f76616c20746f2063757272656e74206f776e6560008201527f7200000000000000000000000000000000000000000000000000000000000000602082015250565b6000612a556021836124b9565b9150612a60826129f9565b604082019050919050565b60006020820190508181036000830152612a8481612a48565b9050919050565b7f4552433732313a20617070726f76652063616c6c6572206973206e6f7420746f60008201527f6b656e206f776e6572206f7220617070726f76656420666f7220616c6c000000602082015250565b6000612ae7603d836124b9565b9150612af282612a8b565b604082019050919050565b60006020820190508181036000830152612b1681612ada565b9050919050565b7f4552433732313a2063616c6c6572206973206e6f7420746f6b656e206f776e6560008201527f72206f7220617070726f76656400000000000000000000000000000000000000602082015250565b6000612b79602d836124b9565b9150612b8482612b1d565b604082019050919050565b60006020820190508181036000830152612ba881612b6c565b9050919050565b600081905092915050565b7f46495253545f574f524400000000000000000000000000000000000000000000600082015250565b6000612bf0600a83612baf565b9150612bfb82612bba565b600a82019050919050565b6000612c11826124ae565b612c1b8185612baf565b9350612c2b8185602086016124ca565b80840191505092915050565b6000612c4282612be3565b9150612c4e8284612c06565b915081905092915050565b7f4e487b7100000000000000000000000000000000000000000000000000000000600052601260045260246000fd5b6000612c9382612560565b9150612c9e83612560565b925082612cae57612cad612c59565b5b828206905092915050565b7f4e487b7100000000000000000000000000000000000000000000000000000000600052603260045260246000fd5b7f4552433732313a20696e76616c696420746f6b656e2049440000000000000000600082015250565b6000612d1e6018836124b9565b9150612d2982612ce8565b602082019050919050565b60006020820190508181036000830152612d4d81612d11565b9050919050565b7f4552433732313a2061646472657373207a65726f206973206e6f74206120766160008201527f6c6964206f776e65720000000000000000000000000000000000000000000000602082015250565b6000612db06029836124b9565b9150612dbb82612d54565b604082019050919050565b60006020820190508181036000830152612ddf81612da3565b9050919050565b7f5345434f4e445f574f5244000000000000000000000000000000000000000000600082015250565b6000612e1c600b83612baf565b9150612e2782612de6565b600b82019050919050565b6000612e3d82612e0f565b9150612e498284612c06565b915081905092915050565b7f54484952445f574f524400000000000000000000000000000000000000000000600082015250565b6000612e8a600a83612baf565b9150612e9582612e54565b600a82019050919050565b6000612eab82612e7d565b9150612eb78284612c06565b915081905092915050565b6000612ece8285612c06565b9150612eda8284612c06565b91508190509392505050565b7f63616e6e6f74206d696e74206f766572206d61782031306e6674732e00000000600082015250565b6000612f1c601c836124b9565b9150612f2782612ee6565b602082019050919050565b60006020820190508181036000830152612f4b81612f0f565b9050919050565b6000612f5e8286612c06565b9150612f6a8285612c06565b9150612f768284612c06565b9150819050949350505050565b60008190508160005260206000209050919050565b60008154612fa5816129c8565b612faf8186612baf565b94506001821660008114612fca5760018114612fdf57613012565b60ff1983168652811515820286019350613012565b612fe885612f83565b60005b8381101561300a57815481890152600182019150602081019050612feb565b838801955050505b50505092915050565b7f3c2f746578743e3c2f7376673e00000000000000000000000000000000000000600082015250565b6000613051600d83612baf565b915061305c8261301b565b600d82019050919050565b60006130738285612f98565b915061307f8284612c06565b915061308a82613044565b91508190509392505050565b7f7b226e616d65223a202200000000000000000000000000000000000000000000600082015250565b60006130cc600a83612baf565b91506130d782613096565b600a82019050919050565b7f222c20226465736372697074696f6e223a20224120686967686c79206163636c60008201527f61696d656420636f6c6c656374696f6e206f6620737175617265732e222c202260208201527f696d616765223a2022646174613a696d6167652f7376672b786d6c3b6261736560408201527f36342c0000000000000000000000000000000000000000000000000000000000606082015250565b600061318a606383612baf565b9150613195826130e2565b606382019050919050565b7f227d000000000000000000000000000000000000000000000000000000000000600082015250565b60006131d6600283612baf565b91506131e1826131a0565b600282019050919050565b60006131f7826130bf565b91506132038285612c06565b915061320e8261317d565b915061321a8284612c06565b9150613225826131c9565b91508190509392505050565b7f646174613a6170706c69636174696f6e2f6a736f6e3b6261736536342c000000600082015250565b6000613267601d83612baf565b915061327282613231565b601d82019050919050565b60006132888261325a565b91506132948284612c06565b915081905092915050565b60006040820190506132b460008301856125f5565b6132c160208301846126de565b9392505050565b7f4552433732313a207472616e736665722066726f6d20696e636f72726563742060008201527f6f776e6572000000000000000000000000000000000000000000000000000000602082015250565b60006133246025836124b9565b915061332f826132c8565b604082019050919050565b6000602082019050818103600083015261335381613317565b9050919050565b7f4552433732313a207472616e7366657220746f20746865207a65726f2061646460008201527f7265737300000000000000000000000000000000000000000000000000000000602082015250565b60006133b66024836124b9565b91506133c18261335a565b604082019050919050565b600060208201905081810360008301526133e5816133a9565b9050919050565b60006133f88284612c06565b915081905092915050565b6000604082019050818103600083015261341d8185612505565b905061342c60208301846126de565b9392505050565b7f4552433732313a20617070726f766520746f2063616c6c657200000000000000600082015250565b60006134696019836124b9565b915061347482613433565b602082019050919050565b600060208201905081810360008301526134988161345c565b9050919050565b7f4552433732313a207472616e7366657220746f206e6f6e20455243373231526560008201527f63656976657220696d706c656d656e7465720000000000000000000000000000602082015250565b60006134fb6032836124b9565b91506135068261349f565b604082019050919050565b6000602082019050818103600083015261352a816134ee565b9050919050565b7f4e487b7100000000000000000000000000000000000000000000000000000000600052601160045260246000fd5b600061356b82612560565b915061357683612560565b925082820190508082111561358e5761358d613531565b5b92915050565b600061359f82612560565b91506135aa83612560565b9250826135ba576135b9612c59565b5b828204905092915050565b60006135d082612560565b91506135db83612560565b92508282026135e981612560565b91508282048414831517613600576135ff613531565b5b5092915050565b7f45524337323155524953746f726167653a2055524920736574206f66206e6f6e60008201527f6578697374656e7420746f6b656e000000000000000000000000000000000000602082015250565b6000613663602e836124b9565b915061366e82613607565b604082019050919050565b6000602082019050818103600083015261369281613656565b9050919050565b60006020601f8301049050919050565b600082821b905092915050565b6000600883026136e67fffffffffffffffffffffffffffffffffffffffffffffffffffffffffffffffff826136a9565b6136f086836136a9565b95508019841693508086168417925050509392505050565b6000819050919050565b600061372d61372861372384612560565b613708565b612560565b9050919050565b6000819050919050565b61374783613712565b61375b61375382613734565b8484546136b6565b825550505050565b600090565b613770613763565b61377b81848461373e565b505050565b5b8181101561379f57613794600082613768565b600181019050613781565b5050565b601f8211156137e4576137b581612f83565b6137be84613699565b810160208510156137cd578190505b6137e16137d985613699565b830182613780565b50505b505050565b600082821c905092915050565b6000613807600019846008026137e9565b1980831691505092915050565b600061382083836137f6565b9150826002028217905092915050565b613839826124ae565b67ffffffffffffffff811115613852576138516127ab565b5b61385c82546129c8565b6138678282856137a3565b600060209050601f83116001811461389a5760008415613888578287015190505b6138928582613814565b8655506138fa565b601f1984166138a886612f83565b60005b828110156138d0578489015182556001820191506020850194506020810190506138ab565b868310156138ed57848901516138e9601f8916826137f6565b8355505b6001600288020188555050505b505050505050565b6000606082019050818103600083015261391c8186612505565b905061392b60208301856126de565b61393860408301846125f5565b949350505050565b600081519050919050565b600082825260208201905092915050565b600061396782613940565b613971818561394b565b93506139818185602086016124ca565b61398a816124f4565b840191505092915050565b60006080820190506139aa60008301876125f5565b6139b760208301866125f5565b6139c460408301856126de565b81810360608301526139d6818461395c565b905095945050505050565b6000815190506139f08161241f565b92915050565b600060208284031215613a0c57613a0b6123e9565b5b6000613a1a848285016139e1565b91505092915050565b7f4552433732313a206d696e7420746f20746865207a65726f2061646472657373600082015250565b6000613a596020836124b9565b9150613a6482613a23565b602082019050919050565b60006020820190508181036000830152613a8881613a4c565b9050919050565b7f4552433732313a20746f6b656e20616c7265616479206d696e74656400000000600082015250565b6000613ac5601c836124b9565b9150613ad082613a8f565b602082019050919050565b60006020820190508181036000830152613af481613ab8565b905091905056fe416e204e465420772f20494420257320686173206265656e206d696e74656420746f2025734142434445464748494a4b4c4d4e4f505152535455565758595a6162636465666768696a6b6c6d6e6f707172737475767778797a303132333435363738392b2fa2646970667358221220dacca8f61822fcf9beefa394ab7c5a14e49623e46354cc5075a559ba37b72cbf64736f6c634300081200333c73766720786d6c6e733d27687474703a2f2f7777772e77332e6f72672f323030302f73766727207072657365727665417370656374526174696f3d27784d696e594d696e206d656574272076696577426f783d273020302033353020333530273e3c7374796c653e2e62617365207b2066696c6c3a2077686974653b20666f6e742d66616d696c793a2073657269663b20666f6e742d73697a653a20323470783b207d3c2f7374796c653e3c726563742077696474683d273130302527206865696768743d2731303025272066696c6c3d27626c61636b27202f3e3c7465787420783d273530252720793d273530252720636c6173733d27626173652720646f6d696e616e742d626173656c696e653d276d6964646c652720746578742d616e63686f723d276d6964646c65273e",
  "linkReferences": {},
  "deployedLinkReferences": {}
}